:020000040800F2
:1000000018080020111200086D1200086D12000877
:100010006D1200086D1200086D120008000000004B
:100020000000000000000000000000006D12000849
:100030006D120008000000006D120008AD120008EB
:100040006D1200086D1200086D1200086D12000894
:100050006D1200086D1200086D1200086D12000884
:100060006D1200086D1200086D1200086D12000874
:100070006D1200086D1200086D1200086D12000864
:100080006D1200086D1200086D1200086D12000854
:100090006D1200086D1200086D1200086D12000844
:1000A0006D1200086D1200086D1200086D12000834
:1000B0006D1200086D1200086D1200086D12000824
:1000C0006D1200086D1200086D1200086D12000814
:1000D0006D1200086D1200086D1200086D12000804
:1000E0006D1200086D1200086D1200086D120008F4
:1000F0006D1200086D1200086D1200086D120008E4
:100100006D1200086D1200086D1200086D120008D3
:100110006D1200086D1200086D1200086D120008C3
:100120006D1200086D1200086D1200086D120008B3
:100130006D1200086D1200086D1200086D120008A3
:100140006D1200086D1200086D1200086D12000893
:100150006D1200086D1200086D1200086D12000883
:100160006D1200086D1200086D1200086D12000873
:100170006D1200086D1200086D1200086D12000863
:100180006D1200086D12000880B582B000AF00F05B
:100190003BF802E00A2000F06BFE00F075FF03461A
:1001A000002BF7D100F0B4F80346FB71FB79112B5B
:1001B00006D0FB79122B03D00020012100F0AAFE0B
:1001C00000F0BEF800F0DAF80346002B03D101205E
:1001D000012100F09FFE00F0F1F800F00DF9D120B0
:1001E00000F02CF900F04EF900F06AF900F086F901
:1001F00000F0C0F900F0DCF90A2000F05FFE00F02A
:10020000F5F90837BD4680BD80B582B000AF002348
:10021000FB71002000F0A6FF0346FB71002000F0F8
:10022000EDFE002000F0DAFE002000F0F9FE0020D4
:1002300000F008FF002000F017FF052000F03EFE50
:10024000012000F0CBFE0A2000F038FE012000F073
:10025000D5FE012000F0F6FE012000F005FF0A2087
:1002600000F02CFE002000F0C9FE0A2000F026FE5F
:10027000012000F0C3FE0A2000F020FE0837BD4632
:1002800080BD00BF80B582B000AF00237B6000F06E
:100290000DFB78680021042200F0DAFB142000F046
:1002A0000DFEC82000F060FD00F046F900F062F994
:1002B000032000F0C9F9012000F0C6F94FF4AF7037
:1002C00000F0FCFD00F044FA002000F0BDF9012030
:1002D00000F0B4F84B2000F0F1FD002000F0B2FE79
:1002E000002000F07BFE142000F0E8FD002000F06C
:1002F00085FE002000F0B8FE012000F091FEC8202D
:1003000000F0DCFD012000F08BFE0837BD4680BD0B
:1003100080B582B000AF71233B7100237B713B1D20
:100320001846022100F04CFF3B1D1846022100F048
:1003300047FF03469BB218460837BD4680BD00BF45
:1003400080B582B000AF0023FB800B4A3B461068AB
:1003500018603B461846022100F032FF0346FB803E
:100360003B4602331846022100F02AFF0346FB8079
:100370000837BD4680BD00BF4830000880B582B058
:1003800000AF0023FB800C4A3B46106818603B46D8
:100390001846022100F014FF0346FB803B4602335F
:1003A0001846022100F00CFF0346DBB2DB09DBB28A
:1003B00018460837BD4680BD4C30000880B582B075
:1003C00000AF0023FB800B4A3B46106818603B4699
:1003D0001846022100F0F4FE0346FB803B46023340
:1003E0001846042100F0ECFE0346FB800837BD46AA
:1003F00080BD00BF5030000880B584B000AF00233E
:10040000FB810D4A3B461068516803C31189927AFB
:1004100019809A703B461846022100F0D1FE03462F
:10042000FB813B46023318460B2100F0C9FE034610
:10043000FB811037BD4680BD5430000880B584B0C4
:1004400000AF0346FB710023FB8170233B7207233F
:100450007B727223BB72FB79FB7207F108031846AB
:10046000022100F0ADFE0346FB8107F108030233D1
:100470001846042100F0A4FE0346FB811037BD4658
:1004800080BD00BF80B582B000AF0023FB800B4A67
:100490003B46106818603B461846022100F090FE6B
:1004A0000346FB803B4602331846022100F088FEDB
:1004B0000346FB800837BD4680BD00BF60300008A2
:1004C00080B582B000AF0023FB800B4A3B4610682A
:1004D00018603B461846022100F072FE0346FB807E
:1004E0003B4602331846022100F06AFE0346FB80B9
:1004F0000837BD4680BD00BF6430000880B582B0BB
:1005000000AF0023FB800B4A3B46106818603B4657
:100510001846022100F054FE0346FB803B4602339E
:100520001846022100F04CFE0346FB800837BD460A
:1005300080BD00BF6830000880B582B000AF0023E6
:10054000FB800B4A3B46106818603B461846022168
:1005500000F036FE0346FB803B460233184602217C
:1005600000F02EFE0346FB800837BD4680BD00BF6D
:100570006C30000880B582B000AF0023FB800B4ACE
:100580003B46106818603B461846022100F018FEF2
:100590000346FB803B4602331846022100F010FE62
:1005A0000346FB800837BD4680BD00BF70300008A1
:1005B00080B582B000AF0023FB800B4A3B46106839
:1005C00018603B461846022100F0FAFD0346FB8006
:1005D0003B4602331846022100F0F2FD0346FB8041
:1005E0000837BD4680BD00BF7430000880B582B0BA
:1005F00000AF0023FB710023BB800023FB711CE0D4
:10060000012000F021F8C82000F058FC032000F081
:100610001BF8642000F052FC0F2000F015F8282091
:1006200000F04CFC00F034F80346002B02D000F040
:1006300053F805E0FB790133FB71FB79032BDFD91C
:100640000837BD4680BD00BF80B584B000AF03460B
:10065000FB710023FB8170233B7205237B727223A5
:10066000BB72FB79FB7207F108031846022100F008
:10067000A7FD0346FB8107F1080302331846022158
:1006800000F09EFD0346FB811037BD4680BD00BFD4
:1006900080B582B000AF0023FB800E4A3B46106855
:1006A00018603B461846022100F08AFD0346FB8095
:1006B0003B4602331846022100F082FD034603F058
:1006C0004003002B14BF01230023DBB21846083778
:1006D000BD4680BD4C30000880B582B000AF00231D
:1006E000FB800B4A3B46106818603B4618460221C7
:1006F00000F066FD0346FB803B46023318460221AC
:1007000000F05EFD0346FB800837BD4680BD00BF9C
:100710007830000880B582B000AF0023FB800B4A20
:100720003B46106818603B461846022100F048FD21
:100730000346FB803B4602331846022100F040FD91
:100740000346FB800837BD4680BD00BF7C300008F3
:1007500080B582B000AF0023FB800B4A3B46106897
:1007600018603B461846022100F02AFD0346FB8034
:100770003B4602331846022100F022FD0346FB806F
:100780000837BD4680BD00BF8030000880B582B00C
:1007900000AF7860786800F049F8786800F00AF8EF
:1007A000786800F063F8322000F0DEFA0837BD46C2
:1007B00080BD00BF80B584B000AF78600023FB73BC
:1007C0000023BB7300237B730023BB7327E000234C
:1007D0007B731EE00023FB7307E0FB7B18460221BE
:1007E00000F07AF8FB7B0133FB73FB7BAF2BF4D972
:1007F0000023FB7307E0FB7B1846012100F06CF837
:10080000FB7B0133FB73FB7BAF2BF4D97B7B013389
:100810007B737B7B002BDDD0BB7B0133BB73BB7B4E
:10082000002BD4D01037BD4680BD00BF80B584B04A
:1008300000AF78600023FB810023FB8110E0FA8980
:1008400013465B0113441A467B681A44FB89DBB2EA
:1008500010461946002200F0FBF8FB890133FB81AA
:10086000FB89AF2BEBD91037BD4680BD80B584B076
:1008700000AF78600023FB810023FB8110E0FA8940
:1008800013465B0113441A467B681A44FB89DBB2AA
:1008900010461946032200F0DBF8FB890133FB8187
:1008A000FB89AF2BEBD91037BD4680BD80B582B038
:1008B00000AF0023FB7100233B600023FB7104E0C9
:1008C00000F09AF8FB790133FB71FB79AF2BF7D974
:1008D0000837BD4680BD00BF80B5A0B000AF03465D
:1008E0000A46FB711346BB7107F10C0370221846D0
:1008F000002100F083FF72233B7300237B730023EE
:1009000087F87F30002387F87F303AE0BB79012BEE
:100910001AD0022B00D02FE097F87F309A1C97F85E
:100920007F304F3307F180011944FF2001F8740C28
:1009300007F180010B4413F8741C07F18003134482
:100940000A4603F8742C17E097F87F309A1C97F842
:100950007F304F3307F180011944AA2001F8740C4D
:1009600007F180010B4413F8741C07F18003134452
:100970000A4603F8742C00BF97F87F30013387F8DC
:100980007F3097F87F30202BC0D9FB799B08DBB2F2
:10099000C3F14E0387F87E3097F87E30FA7902F083
:1009A00003025200032101FA02F2D2B207F18001E0
:1009B0000B4403F8742C0F4A07F1080312881A80BD
:1009C000002387F87D3007F108031846022100F064
:1009D000F7FB034687F87D3007F10C0318467021BA
:1009E00000F0EEFB034687F87D30FFF793FE80377B
:1009F000BD4680BD8430000880B59EB000AF0023A6
:100A000087F87730114A07F1740312881A8007F1CA
:100A100074031846022100F0D3FB034687F87730B1
:100A20003B1D70221846002100F0E8FE72233B7146
:100A30003B1D1846702100F0C3FB034687F8773052
:100A4000FFF768FE7837BD4680BD00BF84300008E0
:100A500080B5BEB000AF78600B46FB701346BB702C
:100A6000002387F8F73007F1C80300221A60043327
:100A700000221A60043300221A60043300221A6034
:100A8000043300221A60043300221A600433002267
:100A90001A60043300221A60043300221A600433FF
:100AA00000221A60043300221A600433FB789B088A
:100AB000DBB2C3F12B03FA7802F0030252000321E8
:100AC00001FA02F2D2B207F1F8010B4403F8302C1C
:100AD00007F1A40300221A60043300221A600433D1
:100AE00000221A60043300221A60043300221A60C4
:100AF000043300221A60043300221A6004330022F7
:100B00001A60043300221A70013307F180030022B7
:100B10001A60043300221A60043300221A6004337E
:100B200000221A60043300221A60043300221A6083
:100B3000043300221A60043300221A6004330022B6
:100B40001A700133BB78042B00F08C80002387F8E7
:100B5000F73082E097F8F730C3F1200387F8F630DA
:100B600097F8F63097F8F72079680A44127822F05F
:100B70005502D2B207F1F8010B4403F8542C97F850
:100B8000F63097F8F62007F1F8010A4412F8542CD1
:100B90001146734A525C07F1F8010B4403F8542CD8
:100BA00097F8F63097F8F62007F1F8010A4412F8A2
:100BB000542C62F05502D2B207F1F8010B4403F84D
:100BC000542C97F8F73097F8F72079680A44127890
:100BD00002F05502D2B207F1F8010B4403F8782C69
:100BE00097F8F73097F8F72007F1F8010A4412F860
:100BF000782C62F05502D2B207F1F8010B4403F8E9
:100C0000782CBB78002B00D022E097F8F63097F8CC
:100C1000F62007F1F8010A4412F8542C82F055022C
:100C2000D2B207F1F8010B4403F8542C97F8F730CF
:100C300097F8F72007F1F8010A4412F8782C82F0AF
:100C40005502D2B207F1F8010B4403F8782C00BF2B
:100C500097F8F730013387F8F73097F8F730202B03
:100C60007FF678AF07F1100370221846002100F0DC
:100C7000C5FD72233B7400237B74002387F8F73093
:100C800013E097F8F730023397F8F72007F1F801EF
:100C90000A4412F8542C07F1F8010B4403F8E82C2D
:100CA00097F8F730013387F8F73097F8F730202BB3
:100CB000E7D9002387F8F73013E097F8F7302333AC
:100CC00097F8F72007F1F8010A4412F8302C07F1E1
:100CD000F8010B4403F8E82C97F8F730013387F854
:100CE000F73097F8F7302B2BE7D9002387F8F73048
:100CF00013E097F8F7304F3397F8F72007F1F80132
:100D00000A4412F8782C07F1F8010B4403F8E82C98
:100D100097F8F730013387F8F73097F8F730202B42
:100D2000E7D9104A07F10C0312881A80002387F8CC
:100D3000F53007F10C031846022100F041FA034692
:100D400087F8F53007F110031846702100F038FAE3
:100D5000034687F8F530FFF7DDFCF837BD4680BD68
:100D6000981800088430000880B582B000AF0346B0
:100D7000FB71002000F066F9FB79184600F09EF840
:100D8000012000F05FF90837BD4680BD80B483B014
:100D900000AF03463960FB7197F90730002B0BDA7F
:100DA0000D49FB7903F00F03043B3A68D2B21201FC
:100DB000D2B20B441A7609E0084997F907303A682D
:100DC000D2B21201D2B20B4483F800230C37BD46D5
:100DD0005DF8047B704700BF00ED00E000E100E03B
:100DE00080B582B000AF78607B68B3F1807F01D3BB
:100DF000012311E00A4A7B6823F07F43013B5360E3
:100E00004FF0FF300F21FFF7C1FF054B00229A6022
:100E1000034B07221A60002318460837BD4680BDE1
:100E200010E000E080B500AF00BF064B1B68064A2B
:100E3000A2FB03239B0C1846FFF7D2FF0346002BAF
:100E4000F3D180BD0000002083DE1B4380B400AFDF
:100E5000064B1B68002B04D0044B1B68013B034A64
:100E60001360BD465DF8047B704700BF140000208E
:100E700080B483B000AF7860064A7B68136000BF1F
:100E8000044B1B68002BFBD10C37BD465DF8047B7F
:100E9000704700BF1400002080B400AF064B4FF431
:100EA0007A721A6000BF044B1B68002BFBD1BD4651
:100EB0005DF8047B704700BF1400002080B582B04D
:100EC00000AF786001E0FFF7E7FF7B685A1E7A60A9
:100ED000002BF8D10837BD4680BD00BF80B582B079
:100EE00000AF0420012100F0E7F94FF460533B60AC
:100EF0000023BB7101233B710023FB7102237B7133
:100F00003B460348194600F013FA0837BD4680BD3A
:100F10000008024080B584B000AF03460A46FB716A
:100F20001346BB71FB790C33012202FA03F3FB81F8
:100F3000BB79012B05D1FB890648194600F0A0FAC0
:100F400004E0FB890348194600F0A8FA1037BD46B3
:100F500080BD00BF0008024080B582B000AF022013
:100F6000012100F0A9F90420012100F0A5F944F2C3
:100F700002033B600023BB7101233B710023FB7123
:100F800002237B713B461348194600F0D1F94FF418
:100F900000533B600023BB7100233B710023FB71B6
:100FA00002237B713B460B48194600F0C1F94FF410
:100FB00040633B600023BB7101233B710023FB7145
:100FC00002237B713B460448194600F0B1F908370B
:100FD000BD4680BD000402400008024080B582B0DA
:100FE00000AF0346FB71FB79034802211A4600F06B
:100FF00063FA0837BD4680BD0004024080B582B068
:1010000000AF0346FB71FB7904484FF400611A46B8
:1010100000F052FA0837BD4680BD00BF000802400C
:1010200080B582B000AF0346FB71FB7904484FF4F2
:1010300080611A4600F040FA0837BD4680BD00BF07
:101040000008024080B582B000AF0346FB71FB7917
:1010500004484FF480411A4600F02EFA0837BD4686
:1010600080BD00BF0004024080B582B000AF0346DF
:10107000FB71FB79034810211A4600F01DFA08376E
:10108000BD4680BD0000024080B500AF03484FF46C
:10109000005100F0DBF90346184680BD0004024011
:1010A00080B588B000AF0120012100F005F9E023F0
:1010B000BB610023BB7702233B770023FB7702232E
:1010C0007B7707F118032548194600F031F92348CA
:1010D0000521052200F008FA20480621052200F02B
:1010E00003FA1E480721052200F0FEF91023BB6118
:1010F0000023BB7701233B770123FB7702237B7718
:1011000007F118031548194600F012F91348102189
:1011100000F0B6F94FF48050012100F0EBF83823CD
:101120003B820023BB8100237B8100233B81002382
:10113000BB8000237B824FF48273FB804FF44073AB
:10114000FB813B1D0648194600F0BCFA044801210A
:1011500000F0FCFA2037BD4680BD00BF0000024011
:101160000030014080B582B000AF0346FB71FB79CF
:101170009BB21248194600F017FB00BF0F4802212E
:1011800000F020FB0346002BF8D000BF0B480121E4
:1011900000F018FB0346002BF8D000BF0748802161
:1011A00000F010FB0346002BF8D1044800F0EEFAE3
:1011B0000346DBB218460837BD4680BD003001400B
:1011C00080B584B000AF78600B467B800023FB7352
:1011D0000023BB810020FFF747FF0023BB810BE00A
:1011E0007B685A1C7A601B781846FFF7BBFF0346E2
:1011F000FB73BB890133BB81BA897B889A42EFD3E9
:101200000120FFF731FFFB7B18461037BD4680BD3C
:1012100080B582B000AF104B7B60104B3B6007E0A5
:101220003B681A1D3A607A68111D796012681A606D
:101230003B680B4A9342F3D30A480B494FF0000234
:101240008842B8BF40F8042BFADB00F095F900F0B3
:1012500011F80837BD4680BD38480008000000205E
:1012600014000020140000201800002080B400AFFB
:10127000FEE700BF80B500AFFFF7D4FDFFF72EFEFD
:10128000FFF76AFEFFF70CFFFEF77EFFFEF7FAFF9F
:10129000FEF77AFF0448FFF779FAFEF7F3FF4FF401
:1012A000FA60FFF70BFEFAE78831000880B500AF5F
:1012B000FFF7CCFD80BD00BF80B483B000AF786085
:1012C0000B46FB70FB78002B06D00949084B1A6BC4
:1012D0007B6813430B6306E00549054B1A6B7B687B
:1012E000DB4313400B630C37BD465DF8047B70474E
:1012F0000038024080B483B000AF78600B46FB70CA
:10130000FB78002B06D00949084B5A6C7B681343C5
:101310004B6406E00549054B5A6C7B68DB43134080
:101320004B640C37BD465DF8047B704700380240C3
:1013300080B487B000AF7860396000237B61002300
:101340003B610023FB6000237B6176E07B69012227
:1013500002FA03F33B613B681A683B691340FB6088
:10136000FA683B699A4265D17B681A687B695B00C1
:10137000194603238B40DB431A407B681A607B6865
:101380001A683B681B7919467B695B0001FA03F315
:101390001A437B681A603B681B79012B03D03B68BA
:1013A0001B79022B2ED17B689A687B695B001946FA
:1013B00003238B40DB431A407B689A607B689A6802
:1013C0003B685B7919467B695B0001FA03F31A43BA
:1013D0007B689A607B685A687B699BB219460123D7
:1013E0008B40DB431A407B685A607B685B683A68D5
:1013F000927911467A6992B201FA02F292B21A43D4
:101400007B685A607B68DA687B699BB25B0003216A
:1014100001FA03F3DB431A407B68DA607B68DA6821
:101420003B68DB7919467B695B0001FA03F31A43D9
:101430007B68DA607B6901337B617B690F2B85D91F
:101440001C37BD465DF8047B704700BF80B485B093
:1014500000AF78600B467B800023FB737B681A69C2
:101460007B881340002B02D00123FB7301E0002393
:10147000FB73FB7B18461437BD465DF8047B704751
:1014800080B483B000AF78600B467B807B687A883D
:101490001A830C37BD465DF8047B704780B483B077
:1014A00000AF78600B467B807B687A885A830C3764
:1014B000BD465DF8047B704780B483B000AF7860B0
:1014C0000B467B8013467B707B78002B03D07B68B8
:1014D0007A881A8302E07B687A885A830C37BD4683
:1014E0005DF8047B704700BF80B485B000AF7860C2
:1014F0000B467B8013467B700023FB600023BB60A0
:101500007B787A8802F0070292009340FB607B8828
:10151000DB089BB218467B88DB089BB21A467B68C7
:10152000083253F822207B8803F007039B001946FA
:101530000F238B40DB4302EA03017B6800F10802C2
:1015400043F822107B88DB089BB21A467B6808327E
:1015500053F82220FB681343BB607B88DB089BB2F7
:101560001A467B680832B96843F822101437BD4622
:101570005DF8047B704700BF80B500AF114A114B86
:101580001B6843F0010313600E4B00229A600D4A62
:101590000C4B1B6823F0847323F480331360094BD6
:1015A000094A5A60074A074B1B6823F480231360DB
:1015B000044B0022DA6000F00BF8044B4FF000629D
:1015C0009A6080BD003802401030002400ED00E039
:1015D00080B483B000AF00237B6000233B60354ABA
:1015E000344B1B6843F480331360324B1B6803F4A5
:1015F00000333B607B6801337B603B68002B03D189
:101600007B68B3F5A06FF0D12A4B1B6803F400335D
:10161000002B02D001233B6001E000233B603B68CC
:10162000012B42D1234A234B1B6C43F0805313649C
:10163000214A214B1B6843F4804313601D4A1D4B14
:101640009B6893601B4A1B4B9B6843F40043936069
:10165000184A184B9B6843F4A0539360154B174AE4
:101660005A60144A134B1B6843F08073136000BF29
:10167000104B1B6803F00073002BF9D0104B40F2A5
:1016800005621A600B4A0B4B9B6823F003039360BF
:10169000084A084B9B6843F00203936000BF054B68
:1016A0009B6803F00C03082BF9D10C37BD465DF89D
:1016B000047B70470038024000700040105440071F
:1016C000003C024080B485B000AF786039600023F0
:1016D000FB817B681B88FB81FB8903F44153FB8101
:1016E0003B681A883B685B8813439AB23B689B88C7
:1016F00013439AB23B68DB8813439AB23B681B8959
:1017000013439AB23B685B8913439AB23B689B8947
:1017100013439AB23B68DB8913439AB2FB891343A4
:10172000FB817B68FA891A807B689B8B9BB223F4D0
:1017300000639AB27B689A833B681A8A7B681A8234
:101740001437BD465DF8047B704700BF80B483B09A
:1017500000AF78600B46FB70FB78002B08D07B68ED
:101760001B889BB243F040039AB27B681A8007E063
:101770007B681B889BB223F040039AB27B681A8077
:101780000C37BD465DF8047B704700BF80B483B062
:1017900000AF78607B689B899BB218460C37BD46CA
:1017A0005DF8047B704700BF80B483B000AF786001
:1017B0000B467B807B687A889A810C37BD465DF842
:1017C000047B704780B485B000AF78600B467B80A7
:1017D0000023FB737B681B899AB27B8813409BB202
:1017E000002B02D00123FB7301E00023FB73FB7B82
:1017F00018461437BD465DF8047B704770B4840703
:1018000046D0541E002A41D0CDB2034602E0621EEB
:10181000E4B3144603F8015B9A07F8D1032C2ED9E0
:10182000CDB245EA05250F2C45EA054519D903F146
:1018300010022646103E0F2E42F8105C42F80C5C57
:1018400042F8085C42F8045C02F11002F2D8A4F1FC
:10185000100222F00F0204F00F041032032C134484
:101860000DD91E462246043A032A46F8045BFAD8EC
:10187000221F22F003020432134404F003042CB1AB
:10188000C9B21C4403F8011BA342FBD170BC7047D2
:1018900014460346C2E700BF008040C020A060E0BD
:1018A000109050D030B070F0088848C828A868E878
:1018B000189858D838B878F8048444C424A464E448
:1018C000149454D434B474F40C8C4CCC2CAC6CEC18
:1018D0001C9C5CDC3CBC7CFC028242C222A262E218
:1018E000129252D232B272F20A8A4ACA2AAA6AEA18
:1018F0001A9A5ADA3ABA7AFA068646C626A666E6E8
:10190000169656D636B676F60E8E4ECE2EAE6EEEB7
:101910001E9E5EDE3EBE7EFE018141C121A161E1CF
:10192000119151D131B171F1098949C929A969E9E7
:10193000199959D939B979F9058545C525A565E5B7
:10194000159555D535B575F50D8D4DCD2DAD6DED87
:101950001D9D5DDD3DBD7DFD038343C323A363E387
:10196000139353D333B373F30B8B4BCB2BAB6BEB87
:101970001B9B5BDB3BBB7BFB078747C727A767E757
:10198000179757D737B777F70F8F4FCF2FAF6FEF27
:101990001F9F5FDF3FBF7FFF00000080FF3F000011
:1019A0000000000000000000000000000000000037
:1019B000000000000000000000000000FCFFFF032A
:1019C0000000000000000000000000000000000017
:1019D00000000000000000000000000080FFFFFF8A
:1019E0001F000000000000000000000000000000D8
:1019F00000000000000000000000000000E0FFFF09
:101A0000FF7F000000000000000000000000000058
:101A10000000000000000000000000000000F8FFCF
:101A2000FFFFFF01000000000000000000000000B8
:101A3000000000000000000000000000000000FCAA
:101A4000FFFFFFFF03000000000000000000000097
:101A50000000000000000000000000000000000086
:101A6000FFFFFFFFFF0F000000000000000000006C
:101A70000000000000000000000000000000000066
:101A8000C0FFFFFFFFFF3F0000000000000000005C
:101A90000000000000000000000000000000000046
:101AA00000E0FFFFFFFFFF7F0000000000000000DC
:101AB0000000000000000000000000000000000026
:101AC0000000F0FFFFFFFFFFFF000000000000002C
:101AD0000000000000000000000000000000000006
:101AE000000000F8FFFFFFFFFFFF01000000000003
:101AF00000000000000000000000000000000000E6
:101B000000000000FCFFFFFFFFFFFF0300000000DC
:101B100000000000000000000000000000000000C5
:101B20000000000000FEFFFFFFFFFFFF07000000B6
:101B300000000000000000000000000000000000A5
:101B4000000000000000FFFFFFFFFFFFFF0F00008D
:101B50000000000000000000000000000000000085
:101B600000000000000080FFFFFFFFFFFFFF1F00DD
:101B70000000000000000000000000000000000065
:101B80000000000000000080FFFFFFFFFFFFFF3F9D
:101B90000000000000000000000000000000000045
:101BA0000000000000000000C0FFFFFF00F0FFFF8A
:101BB0003F000000000000000000000000000000E6
:101BC000000000000000000000E0FFFF1F0080FF99
:101BD000FF7F000000000000000000000000000087
:101BE00000000000000000000000E0FFFF07000010
:101BF000FEFFFF00000000000000000000000000E9
:101C00000000000000000000000000F0FFFF0100E5
:101C100000F8FFFF000000000000000000000000CE
:101C2000000000000000000000000000F8FFFF00BE
:101C30000000F0FFFF0100000000000000000000B5
:101C400000000000000000000000000000F8FF7F1E
:101C5000000000E0FFFF01000000000000000000A5
:101C60000000000000000000000000000000FCFF79
:101C70003F000000C0FFFF03000000000000000064
:101C8000000000000000000000000000000000FC58
:101C9000FF1F00000080FFFF0300000000000000A5
:101CA0000000000000000000000000000000000034
:101CB000FCFF0F00000000FFFF0700000000000015
:101CC0000000000000000000000000000000000014
:101CD00000FEFF0700000000FEFF070000000000FC
:101CE00000000000000000000000000000000000F4
:101CF0000000FEFF0300000000FCFF0700000000E2
:101D000000000000000000000000000000000000D3
:101D1000000000FEFF0300000000FCFF0F000000B9
:101D200000000000000000000000000000000000B3
:101D300000000000FFFF0100000000F8FF0F00009E
:101D40000000000000000000000000000000000093
:101D50000000000000FFFF0100000000F8FF0F007E
:101D60000000000000000000000000000000000073
:101D70000000000000F0FFFF0100000000F0FF0F76
:101D80000000000000000000000000000000000053
:101D9000000000000000F0FFFF0000000000F0FF66
:101DA0001F00F0FF01F83F001E003EE003FF3FC0B0
:101DB000FF03F07F001EF0F800000000000000F0BC
:101DC000FF1F00F0FF01FC7F001E007CF001FF3FC1
:101DD000C0FF03F8FF001EF0F0000000000000004C
:101DE000E0FF1F00F0FF03FC7F001E007CF800FFF7
:101DF0003FC0FF03F8FF011EF000000000000000DC
:101E000000E0FF1F00F0C0031CF0001E00F8780087
:101E1000E001C001007CE0011EF0000000000000B5
:101E20000000E0FF1F00F0C0031EF0001E00F07D68
:101E300000E001C001003CE0011EF00000000000D5
:101E4000000000E0FF1F00F0C0031EF0001E00E0D5
:101E50003F00E001C001003CE0011EF00000000076
:101E600000000000E0FF1F00F0C0031EF0001E0095
:101E7000E01F00E001C0FF013C0000FEFF00000089
:101E80000000000000E0FF1F00F0FF031EF0001E36
:101E900000C01F00E001C0FF013C0000FEFF000089
:101EA000000000000000E0FF1F00F0FF011EF00036
:101EB0001E00800F00E001C0FF013C0000FEFF009B
:101EC00000000000000000E0FF1F00F0FF001EF017
:101ED000001E00800700E001C001003CE0013EF070
:101EE0000000000000000000E0FF1F00F03F001EA7
:101EF000F0001E00800700E001C001003CE0011E70
:101F0000F00000000000000000E0FF1F00F00000F3
:101F10001EF0001E00800700E001C001003CE0014F
:101F20001EF00000000000000000E0FF1F00F000B5
:101F3000003CF8001E00800700E001C001007CF0BA
:101F4000011EF00000000000000000E0FF1F00F094
:101F50000000FC7F00FE1F800700E001C0FF03F8C7
:101F6000FF011EF00000000000000000F0FF1F0055
:101F7000F00000FC7F00FE1F800700E001E0FF038F
:101F8000F0FF001EF000FFFF0000000000F0FF1F48
:101F900000F00000F01F00FE0F800700E001C0FF0E
:101FA00003E07F001CF000FFFF0100000000F0FFD5
:101FB0000F00000000000000000000000000000012
:101FC0000000000000000000FFFF0100000000F81A
:101FD000FF0F0000000000000000000000000000F3
:101FE000000000000000000000FFFF0300000000F0
:101FF000F8FF0F00000000000000000000000000DB
:1020000000000000000000000000FFFF03000000CF
:1020100000FCFF0F000000000000000000000000B6
:102020000000000000000000000000FFFF070000AB
:102030000000FEFF0700000000000000000000009C
:10204000000000000000000000000000FFFF07008B
:10205000000000FEFF07000000000000000000007C
:1020600000000000000000000000000000FFFF0F63
:1020700000000000FFFF030000000000000000005F
:102080000000000000000000000000000000FFFF52
:102090001F00000080FFFF0300F0C0833F3838FFBF
:1020A000E30FFE3180018C7FF8070000000000FF85
:1020B000FF3F000000C0FFFF0100F0C0C37F783881
:1020C000FFF31FFF7180018E7FF80F0000000000FA
:1020D000FFFF7F000000E0FFFF0100F0E1E3607818
:1020E00038387038067080018E03180E000000002A
:1020F00000FFFFFF000000F0FFFF0000F0E163E0E1
:10210000F838307038067080018E01180C0000001D
:102110000000FFFFFF030000FCFFFF0000F0616311
:10212000E0D839307038067080018E01180C00003C
:10213000000000FFFFFF0F0000FEFF7F0000F073B4
:1021400063E0D839307038FE7180018E7F180C0042
:1021500000000000FFFFFF3F00C0FFFF7F00007096
:102160003363E0983B30F03FFE7180018E7FF80FC3
:102170000000000000FFFFFFFF03FCFFFF3F000027
:10218000703763E0983B30F01F067080018E01F8D5
:102190000F0000000000FFFFFFFFFFFFFFFF1F0019
:1021A00000703F63E0183F307000067080018E01C0
:1021B000180E0000000000FFFFFFFFFFFFFFFF0FF2
:1021C0000000701EE3E0183E307000067080018E43
:1021D00001180C0000000000FFFFFFFFFFFFFFFFE2
:1021E0000F0000701EE37F183E307000FFF18F7FFC
:1021F0008E7F180C0000000000FFFFFFFFFFFFFFB5
:10220000FF070000701CC37F183C306000FEF18F98
:102210007F8E7F180C0000000000FFFFFFFFFFFF14
:10222000FFFF0300000000000600000000000000A7
:102230000000000000000000000000FFFFFFFFFFA3
:10224000FFFFFF0100000000000000000000000090
:10225000000000000000000000000000FFFFFFFF82
:10226000FFFFFFFF00000000000000000000000072
:1022700000000000000000000000000000FFFFFF61
:10228000FFFFFFFF3F000000000000000000000013
:102290000000000000000000000000000000FFFF40
:1022A000FFFFFFFFFF1F0000000000000000000014
:1022B000000000000000000000000000000000FF1F
:1022C0007FFFFFFFFFFF0F00000000000000000085
:1022D00000000000000000000000000000000000FE
:1022E000FE7FFCFFFFFFFF03000000000000000076
:1022F00000000000000000000000000000000000DE
:1023000000FE7FF0FFFFFFFF000000000000000064
:1023100000000000000000000000000000000000BD
:102320000000FE7FC0FFFFFF3F0000000000000034
:10233000000000000000000000000000000000009D
:10234000000000FC7F00FFFFFF0F00000000000006
:10235000000000000000000000000000000000007D
:1023600000000000FC7F00F8FFFF010000000000FB
:10237000000000000000000000000000000000005D
:102380000000000000F87F0000FE070000000000D1
:10239000000000000000000000000000000000003D
:1023A000000000000000F07F0000000000000000BE
:1023B000000000000000000000000000000000001D
:1023C00000000000000000E07F00000000000000AE
:1023D00000000000000000000000000000000000FD
:1023E0000000000000000000C07F000000000000AE
:1023F00000000000000000000000000000000000DD
:10240000000000000000000000007E00000000004E
:1024100000000000000000000000000000000000BC
:1024200000000000000000000000000000000000AC
:10243000000000000000000000000000000000009C
:10244000000000000000000000000000000000008C
:102A80000000000000000018030000000000001813
:102A9000C000000000000000000000000000000076
:102AA0000000000000181800180300C0603000008B
:102AB00018C0001800000000000000000000000026
:102AC000000000000000181800180300C06030006B
:102AD0000018C00018000000000000000000000006
:102AE0000000000000000018180018030080F11812
:102AF000000018C0001800000000000000000000E6
:102B0000000000000000000018187C18830780A156
:102B1000183C981BFC00180000000000000000009A
:102B20000000000000000000001818FF18E31F80DC
:102B3000D118FFF81BFF0018000000000000000083
:102B400000000000000000000000F81FC319631817
:102B5000009118C33818C3001800000000000000DE
:102B60000000000000000000000000F89F81193301
:102B700030809B89811998C1001800000000000076
:102B80000000000000000000000000001898FF197D
:102B9000333000938D811998C100180000000000A7
:102BA000000000000000000000000000001898FF76
:102BB000193330000B8D811998C100080000000006
:102BC0000000000000000000000000000000189855
:102BD00001187330000A8D831998C10000000000AD
:102BE00000000000000000000000000000000018CD
:102BF000188319631C000E07E31898E30000000017
:102C000000000000000000000000000000000000C4
:102C10001818FF19E31F000E07FF1818FF0018000F
:102C200000000000000000000000000000000000A4
:102C30000018187C1883070006063C1818DE0018D8
:102C40000000000000000000000000000000000084
:102C50000000000000000000000000000000000074
:102C60000000000000000000000000000000000064
:102C70000000000000000000000000000000000054
:10304000000000000000000070027240700F73006A
:10305000700B72027001720000007FFFFE00000022
:1030600070087202700972C270047203700B7200F1
:1030700070037201700372007002720670027207B0
:1030800070047280700A0000008040C020A060E0E0
:10309000109050D030B070F0088848C828A868E870
:1030A000189858D838B878F8048444C424A464E440
:1030B000149454D434B474F40C8C4CCC2CAC6CEC10
:1030C0001C9C5CDC3CBC7CFC028242C222A262E210
:1030D000129252D232B272F20A8A4ACA2AAA6AEA10
:1030E0001A9A5ADA3ABA7AFA068646C626A666E6E0
:1030F000169656D636B676F60E8E4ECE2EAE6EEEB0
:103100001E9E5EDE3EBE7EFE018141C121A161E1C7
:10311000119151D131B171F1098949C929A969E9DF
:10312000199959D939B979F9058545C525A565E5AF
:10313000159555D535B575F50D8D4DCD2DAD6DED7F
:103140001D9D5DDD3DBD7DFD038343C323A363E37F
:10315000139353D333B373F30B8B4BCB2BAB6BEB7F
:103160001B9B5BDB3BBB7BFB078747C727A767E74F
:10317000179757D737B777F70F8F4FCF2FAF6FEF1F
:103180001F9F5FDF3FBF7FFF00000080FF3F000009
:10319000000000000000000000000000000000002F
:1031A000000000000000000000000000FCFFFF0322
:1031B000000000000000000000000000000000000F
:1031C00000000000000000000000000080FFFFFF82
:1031D0001F000000000000000000000000000000D0
:1031E00000000000000000000000000000E0FFFF01
:1031F000FF7F000000000000000000000000000051
:103200000000000000000000000000000000F8FFC7
:10321000FFFFFF01000000000000000000000000B0
:10322000000000000000000000000000000000FCA2
:10323000FFFFFFFF0300000000000000000000008F
:10324000000000000000000000000000000000007E
:10325000FFFFFFFFFF0F0000000000000000000064
:10326000000000000000000000000000000000005E
:10327000C0FFFFFFFFFF3F00000000000000000054
:10328000000000000000000000000000000000003E
:1032900000E0FFFFFFFFFF7F0000000000000000D4
:1032A000000000000000000000000000000000001E
:1032B0000000F0FFFFFFFFFFFF0000000000000024
:1032C00000000000000000000000000000000000FE
:1032D000000000F8FFFFFFFFFFFF010000000000FB
:1032E00000000000000000000000000000000000DE
:1032F00000000000FCFFFFFFFFFFFF0300000000D5
:1033000000000000000000000000000000000000BD
:103310000000000000FEFFFFFFFFFFFF07000000AE
:10332000000000000000000000000000000000009D
:10333000000000000000FFFFFFFFFFFFFF0F000085
:10334000000000000000000000000000000000007D
:1033500000000000000080FFFFFFFFFFFFFF1F00D5
:10336000000000000000000000000000000000005D
:103370000000000000000080FFFFFFFFFFFFFF3F95
:10338000000000000000000000000000000000003D
:103390000000000000000000C0FFFFFF00F0FFFF82
:1033A0003F000000000000000000000000000000DE
:1033B000000000000000000000E0FFFF1F0080FF91
:1033C000FF7F00000000000000000000000000007F
:1033D00000000000000000000000E0FFFF07000008
:1033E000FEFFFF00000000000000000000000000E1
:1033F0000000000000000000000000F0FFFF0100DE
:1034000000F8FFFF000000000000000000000000C6
:10341000000000000000000000000000F8FFFF00B6
:103420000000F0FFFF0100000000000000000000AD
:1034300000000000000000000000000000F8FF7F16
:10344000000000E0FFFF010000000000000000009D
:103450000000000000000000000000000000FCFF71
:103460003F000000C0FFFF0300000000000000005C
:10347000000000000000000000000000000000FC50
:10348000FF1F00000080FFFF03000000000000009D
:10349000000000000000000000000000000000002C
:1034A000FCFF0F00000000FFFF070000000000000D
:1034B000000000000000000000000000000000000C
:1034C00000FEFF0700000000FEFF070000000000F4
:1034D00000000000000000000000000000000000EC
:1034E0000000FEFF0300000000FCFF0700000000DA
:1034F00000000000000000000000000000000000CC
:10350000000000FEFF0300000000FCFF0F000000B1
:1035100000000000000000000000000000000000AB
:1035200000000000FFFF0100000000F8FF0F000096
:10353000000000000000000000000000000000008B
:103540000000000000FFFF0100000000F8FF0F0076
:10355000000000000000000000000000000000006B
:103560000000000000F0FFFF0100000000F0FF0F6E
:10357000000000000000000000000000000000004B
:10358000000000000000F0FFFF0000000000F0FF5E
:103590001F00F0FF01F83F001E003EE003FF3FC0A8
:1035A000FF03F07F001EF0F800000000000000F0B4
:1035B000FF1F00F0FF01FC7F001E007CF001FF3FB9
:1035C000C0FF03F8FF001EF0F00000000000000044
:1035D000E0FF1F00F0FF03FC7F001E007CF800FFEF
:1035E0003FC0FF03F8FF011EF000000000000000D4
:1035F00000E0FF1F00F0C0031CF0001E00F8780080
:10360000E001C001007CE0011EF0000000000000AD
:103610000000E0FF1F00F0C0031EF0001E00F07D60
:1036200000E001C001003CE0011EF00000000000CD
:10363000000000E0FF1F00F0C0031EF0001E00E0CD
:103640003F00E001C001003CE0011EF0000000006E
:1036500000000000E0FF1F00F0C0031EF0001E008D
:10366000E01F00E001C0FF013C0000FEFF00000081
:103670000000000000E0FF1F00F0FF031EF0001E2E
:1036800000C01F00E001C0FF013C0000FEFF000081
:10369000000000000000E0FF1F00F0FF011EF0002E
:1036A0001E00800F00E001C0FF013C0000FEFF0093
:1036B00000000000000000E0FF1F00F0FF001EF00F
:1036C000001E00800700E001C001003CE0013EF068
:1036D0000000000000000000E0FF1F00F03F001E9F
:1036E000F0001E00800700E001C001003CE0011E68
:1036F000F00000000000000000E0FF1F00F00000EC
:103700001EF0001E00800700E001C001003CE00147
:103710001EF00000000000000000E0FF1F00F000AD
:10372000003CF8001E00800700E001C001007CF0B2
:10373000011EF00000000000000000E0FF1F00F08C
:103740000000FC7F00FE1F800700E001C0FF03F8BF
:10375000FF011EF00000000000000000F0FF1F004D
:10376000F00000FC7F00FE1F800700E001E0FF0387
:10377000F0FF001EF000FFFF0000000000F0FF1F40
:1037800000F00000F01F00FE0F800700E001C0FF06
:1037900003E07F001CF000FFFF0100000000F0FFCD
:1037A0000F0000000000000000000000000000000A
:1037B0000000000000000000FFFF0100000000F812
:1037C000FF0F0000000000000000000000000000EB
:1037D000000000000000000000FFFF0300000000E8
:1037E000F8FF0F00000000000000000000000000D3
:1037F00000000000000000000000FFFF03000000C8
:1038000000FCFF0F000000000000000000000000AE
:103810000000000000000000000000FFFF070000A3
:103820000000FEFF07000000000000000000000094
:10383000000000000000000000000000FFFF070083
:10384000000000FEFF070000000000000000000074
:1038500000000000000000000000000000FFFF0F5B
:1038600000000000FFFF0300000000000000000057
:103870000000000000000000000000000000FFFF4A
:103880001F00000080FFFF0300F0C0833F3838FFB7
:10389000E30FFE3180018C7FF8070000000000FF7D
:1038A000FF3F000000C0FFFF0100F0C0C37F783879
:1038B000FFF31FFF7180018E7FF80F0000000000F2
:1038C000FFFF7F000000E0FFFF0100F0E1E3607810
:1038D00038387038067080018E03180E0000000022
:1038E00000FFFFFF000000F0FFFF0000F0E163E0D9
:1038F000F838307038067080018E01180C00000016
:103900000000FFFFFF030000FCFFFF0000F0616309
:10391000E0D839307038067080018E01180C000034
:10392000000000FFFFFF0F0000FEFF7F0000F073AC
:1039300063E0D839307038FE7180018E7F180C003A
:1039400000000000FFFFFF3F00C0FFFF7F0000708E
:103950003363E0983B30F03FFE7180018E7FF80FBB
:103960000000000000FFFFFFFF03FCFFFF3F00001F
:10397000703763E0983B30F01F067080018E01F8CD
:103980000F0000000000FFFFFFFFFFFFFFFF1F0011
:1039900000703F63E0183F307000067080018E01B8
:1039A000180E0000000000FFFFFFFFFFFFFFFF0FEA
:1039B0000000701EE3E0183E307000067080018E3B
:1039C00001180C0000000000FFFFFFFFFFFFFFFFDA
:1039D0000F0000701EE37F183E307000FFF18F7FF4
:1039E0008E7F180C0000000000FFFFFFFFFFFFFFAD
:1039F000FF070000701CC37F183C306000FEF18F91
:103A00007F8E7F180C0000000000FFFFFFFFFFFF0C
:103A1000FFFF03000000000006000000000000009F
:103A20000000000000000000000000FFFFFFFFFF9B
:103A3000FFFFFF0100000000000000000000000088
:103A4000000000000000000000000000FFFFFFFF7A
:103A5000FFFFFFFF0000000000000000000000006A
:103A600000000000000000000000000000FFFFFF59
:103A7000FFFFFFFF3F00000000000000000000000B
:103A80000000000000000000000000000000FFFF38
:103A9000FFFFFFFFFF1F000000000000000000000C
:103AA000000000000000000000000000000000FF17
:103AB0007FFFFFFFFFFF0F0000000000000000007D
:103AC00000000000000000000000000000000000F6
:103AD000FE7FFCFFFFFFFF0300000000000000006E
:103AE00000000000000000000000000000000000D6
:103AF00000FE7FF0FFFFFFFF00000000000000005D
:103B000000000000000000000000000000000000B5
:103B10000000FE7FC0FFFFFF3F000000000000002C
:103B20000000000000000000000000000000000095
:103B3000000000FC7F00FFFFFF0F000000000000FE
:103B40000000000000000000000000000000000075
:103B500000000000FC7F00F8FFFF010000000000F3
:103B60000000000000000000000000000000000055
:103B70000000000000F87F0000FE070000000000C9
:103B80000000000000000000000000000000000035
:103B9000000000000000F07F0000000000000000B6
:103BA0000000000000000000000000000000000015
:103BB00000000000000000E07F00000000000000A6
:103BC00000000000000000000000000000000000F5
:103BD0000000000000000000C07F000000000000A6
:103BE00000000000000000000000000000000000D5
:103BF000000000000000000000007E000000000047
:103C000000000000000000000000000000000000B4
:103C100000000000000000000000000000000000A4
:103C20000000000000000000000000000000000094
:103C30000000000000000000000000000000000084
:10427000000000000000001803000000000000180B
:10428000C00000000000000000000000000000006E
:104290000000000000181800180300C06030000083
:1042A00018C000180000000000000000000000001E
:1042B000000000000000181800180300C060300063
:1042C0000018C000180000000000000000000000FE
:1042D0000000000000000018180018030080F1180A
:1042E000000018C0001800000000000000000000DE
:1042F000000000000000000018187C18830780A14F
:10430000183C981BFC001800000000000000000092
:104310000000000000000000001818FF18E31F80D4
:10432000D118FFF81BFF001800000000000000007B
:1043300000000000000000000000F81FC31963180F
:10434000009118C33818C3001800000000000000D6
:104350000000000000000000000000F89F811933F9
:1043600030809B89811998C100180000000000006E
:104370000000000000000000000000001898FF1975
:10438000333000938D811998C1001800000000009F
:10439000000000000000000000000000001898FF6E
:1043A000193330000B8D811998C1000800000000FE
:1043B000000000000000000000000000000018984D
:1043C00001187330000A8D831998C10000000000A5
:1043D00000000000000000000000000000000018C5
:1043E000188319631C000E07E31898E3000000000F
:1043F00000000000000000000000000000000000BD
:104400001818FF19E31F000E07FF1818FF00180007
:10441000000000000000000000000000000000009C
:104420000018187C1883070006063C1818DE0018D0
:10443000000000000000000000000000000000007C
:10444000000000000000000000000000000000006C
:10445000000000000000000000000000000000005C
:10446000000000000000000000000000000000004C
:10483800007A030A000000000000000001020304DF
:04484800060708094E
:0400000508000000EF
:00000001FF
