:020000040800F2
:10000000C81E0020F91100085512000855120008FA
:100010005512000855120008551200080000000093
:100020000000000000000000000000005512000861
:100030005512000800000000551200089D1200082B
:1000400055120008551200085512000855120008F4
:1000500055120008551200085512000855120008E4
:1000600055120008551200085512000855120008D4
:1000700055120008551200085512000855120008C4
:1000800055120008551200085512000855120008B4
:1000900055120008551200085512000855120008A4
:1000A0005512000855120008551200085512000894
:1000B0005512000855120008551200085512000884
:1000C0005512000855120008551200085512000874
:1000D0005512000855120008551200085512000864
:1000E0005512000855120008551200085512000854
:1000F0005512000855120008551200085512000844
:100100005512000855120008551200085512000833
:100110005512000855120008551200085512000823
:100120005512000855120008551200085512000813
:100130005512000855120008551200085512000803
:1001400055120008551200085512000855120008F3
:1001500055120008551200085512000855120008E3
:1001600055120008551200085512000855120008D3
:1001700055120008551200085512000855120008C3
:10018000551200085512000880B582B000AF00F08B
:100190003BF802E00A2000F05FFE00F069FF034632
:1001A000002BF7D100F0B4F80346FB71FB79112B5B
:1001B00006D0FB79122B03D00020012100F09EFE17
:1001C00000F0BEF800F0DAF80346002B03D101205E
:1001D000012100F093FE00F0F1F800F00DF9D120BC
:1001E00000F02CF900F04EF900F06AF900F086F901
:1001F00000F0C0F900F0DCF90A2000F053FE00F036
:10020000F5F90837BD4680BD80B582B000AF002348
:10021000FB71002000F09AFF0346FB71002000F004
:10022000E1FE002000F0CEFE002000F0EDFE0020F8
:1002300000F0FCFE002000F00BFF052000F032FE75
:10024000012000F0BFFE0A2000F02CFE012000F08B
:10025000C9FE012000F0EAFE012000F0F9FE0A20AC
:1002600000F020FE002000F0BDFE0A2000F01AFE83
:10027000012000F0B7FE0A2000F014FE0837BD464A
:1002800080BD00BF80B582B000AF00237B6000F06E
:100290000DFB78680021042200F0DAFB142000F046
:1002A00001FEC82000F054FD00F046F900F062F9AC
:1002B000032000F0C9F9012000F0C6F94FF4AF7037
:1002C00000F0F0FD00F044FA002000F0BDF901203C
:1002D00000F0B4F84B2000F0E5FD002000F0A6FE91
:1002E000002000F06FFE142000F0DCFD002000F084
:1002F00079FE002000F0ACFE012000F085FEC82051
:1003000000F0D0FD012000F07FFE0837BD4680BD23
:1003100080B582B000AF71233B7100237B713B1D20
:100320001846022100F040FF3B1D1846022100F054
:100330003BFF03469BB218460837BD4680BD00BF51
:1003400080B582B000AF0023FB800B4A3B461068AB
:1003500018603B461846022100F026FF0346FB804A
:100360003B4602331846022100F01EFF0346FB8085
:100370000837BD4680BD00BF8819000880B582B02F
:1003800000AF0023FB800C4A3B46106818603B46D8
:100390001846022100F008FF0346FB803B4602336B
:1003A0001846022100F000FF0346DBB2DB09DBB296
:1003B00018460837BD4680BD8C19000880B582B04C
:1003C00000AF0023FB800B4A3B46106818603B4699
:1003D0001846022100F0E8FE0346FB803B4602334C
:1003E0001846042100F0E0FE0346FB800837BD46B6
:1003F00080BD00BF9019000880B584B000AF002315
:10040000FB810D4A3B461068516803C31189927AFB
:1004100019809A703B461846022100F0C5FE03463B
:10042000FB813B46023318460B2100F0BDFE03461C
:10043000FB811037BD4680BD9419000880B584B09B
:1004400000AF0346FB710023FB8170233B7207233F
:100450007B727223BB72FB79FB7207F108031846AB
:10046000022100F0A1FE0346FB8107F108030233DD
:100470001846042100F098FE0346FB811037BD4664
:1004800080BD00BF80B582B000AF0023FB800B4A67
:100490003B46106818603B461846022100F084FE77
:1004A0000346FB803B4602331846022100F07CFEE7
:1004B0000346FB800837BD4680BD00BFA019000879
:1004C00080B582B000AF0023FB800B4A3B4610682A
:1004D00018603B461846022100F066FE0346FB808A
:1004E0003B4602331846022100F05EFE0346FB80C5
:1004F0000837BD4680BD00BFA419000880B582B092
:1005000000AF0023FB800B4A3B46106818603B4657
:100510001846022100F048FE0346FB803B460233AA
:100520001846022100F040FE0346FB800837BD4616
:1005300080BD00BFA819000880B582B000AF0023BD
:10054000FB800B4A3B46106818603B461846022168
:1005500000F02AFE0346FB803B4602331846022188
:1005600000F022FE0346FB800837BD4680BD00BF79
:10057000AC19000880B582B000AF0023FB800B4AA5
:100580003B46106818603B461846022100F00CFEFE
:100590000346FB803B4602331846022100F004FE6E
:1005A0000346FB800837BD4680BD00BFB019000878
:1005B00080B582B000AF0023FB800B4A3B46106839
:1005C00018603B461846022100F0EEFD0346FB8012
:1005D0003B4602331846022100F0E6FD0346FB804D
:1005E0000837BD4680BD00BFB419000880B582B091
:1005F00000AF0023FB710023BB800023FB711CE0D4
:10060000012000F021F8C82000F04CFC032000F08D
:100610001BF8642000F046FC0F2000F015F828209D
:1006200000F040FC00F034F80346002B02D000F04C
:1006300053F805E0FB790133FB71FB79032BDFD91C
:100640000837BD4680BD00BF80B584B000AF03460B
:10065000FB710023FB8170233B7205237B727223A5
:10066000BB72FB79FB7207F108031846022100F008
:100670009BFD0346FB8107F1080302331846022164
:1006800000F092FD0346FB811037BD4680BD00BFE0
:1006900080B582B000AF0023FB800E4A3B46106855
:1006A00018603B461846022100F07EFD0346FB80A1
:1006B0003B4602331846022100F076FD034603F064
:1006C0004003002B14BF01230023DBB21846083778
:1006D000BD4680BD8C19000880B582B000AF0023F4
:1006E000FB800B4A3B46106818603B4618460221C7
:1006F00000F05AFD0346FB803B46023318460221B8
:1007000000F052FD0346FB800837BD4680BD00BFA8
:10071000B819000880B582B000AF0023FB800B4AF7
:100720003B46106818603B461846022100F03CFD2D
:100730000346FB803B4602331846022100F034FD9D
:100740000346FB800837BD4680BD00BFBC190008CA
:1007500080B582B000AF0023FB800B4A3B46106897
:1007600018603B461846022100F01EFD0346FB8040
:100770003B4602331846022100F016FD0346FB807B
:100780000837BD4680BD00BFC019000880B582B0E3
:1007900000AF7860786800F049F8786800F00AF8EF
:1007A000786800F063F8322000F0D2FA0837BD46CE
:1007B00080BD00BF80B584B000AF78600023FB73BC
:1007C0000023BB7300237B730023BB7327E000234C
:1007D0007B731EE00023FB7307E0FB7B18460221BE
:1007E00000F07AF8FB7B0133FB73FB7BAF2BF4D972
:1007F0000023FB7307E0FB7B1846012100F06CF837
:10080000FB7B0133FB73FB7BAF2BF4D97B7B013389
:100810007B737B7B012BDDD9BB7B0133BB73BB7B44
:10082000012BD4D91037BD4680BD00BF80B584B040
:1008300000AF78600023FB810023FB8110E0FA8980
:1008400013465B0113441A467B681A44FB89DBB2EA
:1008500010461946002200F0FBF8FB890133FB81AA
:10086000FB89AF2BEBD91037BD4680BD80B584B076
:1008700000AF78600023FB810023FB8110E0FA8940
:1008800013465B0113441A467B681A44FB89DBB2AA
:1008900010461946032200F0DBF8FB890133FB8187
:1008A000FB89AF2BEBD91037BD4680BD80B582B038
:1008B00000AF0023FB7100233B600023FB7104E0C9
:1008C00000F09AF8FB790133FB71FB79AF2BF7D974
:1008D0000837BD4680BD00BF80B5A0B000AF03465D
:1008E0000A46FB711346BB7107F10C0370221846D0
:1008F000002100F07BFF72233B7300237B730023F6
:1009000087F87F30002387F87F303AE0BB79012BEE
:100910001AD0022B00D02FE097F87F309A1C97F85E
:100920007F304F3307F180011944FF2001F8740C28
:1009300007F180010B4413F8741C07F18003134482
:100940000A4603F8742C17E097F87F309A1C97F842
:100950007F304F3307F180011944AA2001F8740C4D
:1009600007F180010B4413F8741C07F18003134452
:100970000A4603F8742C00BF97F87F30013387F8DC
:100980007F3097F87F30202BC0D9FB799B08DBB2F2
:10099000C3F14E0387F87E3097F87E30FA7902F083
:1009A00003025200032101FA02F2D2B207F18001E0
:1009B0000B4403F8742C0F4A07F1080312881A80BD
:1009C000002387F87D3007F108031846022100F064
:1009D000EBFB034687F87D3007F10C0318467021C6
:1009E00000F0E2FB034687F87D30FFF793FE803787
:1009F000BD4680BDC419000880B59EB000AF00237D
:100A000087F87730114A07F1740312881A8007F1CA
:100A100074031846022100F0C7FB034687F87730BD
:100A20003B1D70221846002100F0E0FE72233B714E
:100A30003B1D1846702100F0B7FB034687F877305E
:100A4000FFF768FE7837BD4680BD00BFC4190008B7
:100A500080B5BEB000AF78600B46FB701346BB702C
:100A6000002387F8F73007F1C80300221A60043327
:100A700000221A60043300221A60043300221A6034
:100A8000043300221A60043300221A600433002267
:100A90001A60043300221A60043300221A600433FF
:100AA00000221A60043300221A600433FB789B088A
:100AB000DBB2C3F12B03FA7802F0030252000321E8
:100AC00001FA02F2D2B207F1F8010B4403F8302C1C
:100AD00007F1A40300221A60043300221A600433D1
:100AE00000221A60043300221A60043300221A60C4
:100AF000043300221A60043300221A6004330022F7
:100B00001A60043300221A70013307F180030022B7
:100B10001A60043300221A60043300221A6004337E
:100B200000221A60043300221A60043300221A6083
:100B3000043300221A60043300221A6004330022B6
:100B40001A700133BB78042B00F08C80002387F8E7
:100B5000F73082E097F8F730C3F1200387F8F630DA
:100B600097F8F63097F8F72079680A44127822F05F
:100B70005502D2B207F1F8010B4403F8542C97F850
:100B8000F63097F8F62007F1F8010A4412F8542CD1
:100B900011466D4A525C07F1F8010B4403F8542CDE
:100BA00097F8F63097F8F62007F1F8010A4412F8A2
:100BB000542C62F05502D2B207F1F8010B4403F84D
:100BC000542C97F8F73097F8F72079680A44127890
:100BD00002F05502D2B207F1F8010B4403F8782C69
:100BE00097F8F73097F8F72007F1F8010A4412F860
:100BF000782C62F05502D2B207F1F8010B4403F8E9
:100C0000782CBB78002B00D022E097F8F63097F8CC
:100C1000F62007F1F8010A4412F8542C82F055022C
:100C2000D2B207F1F8010B4403F8542C97F8F730CF
:100C300097F8F72007F1F8010A4412F8782C82F0AF
:100C40005502D2B207F1F8010B4403F8782C00BF2B
:100C500097F8F730013387F8F73097F8F730202B03
:100C60007FF678AF07F1100370221846002100F0DC
:100C7000BDFD72233B7400237B74002387F8F7309B
:100C800022E097F8F730023397F8F72007F1F801E0
:100C90000A4412F8542C07F1F8010B4403F8E82C2D
:100CA00097F8F7304F3397F8F72007F1F8010A4427
:100CB00012F8782C07F1F8010B4403F8E82C97F8A8
:100CC000F730013387F8F73097F8F730202BD8D971
:100CD000002387F8F73013E097F8F730233397F8BD
:100CE000F72007F1F8010A4412F8302C07F1F80157
:100CF0000B4403F8E82C97F8F730013387F8F73006
:100D000097F8F7302B2BE7D9104A07F10C0312881C
:100D10001A80002387F8F53007F10C0318460221EA
:100D200000F042FA034687F8F53007F11003184641
:100D3000702100F039FA034687F8F530FFF7EAFC36
:100D4000F837BD4680BD00BF88180008C4190008E8
:100D500080B582B000AF0346FB71002000F066F959
:100D6000FB79184600F09EF8012000F05FF9083783
:100D7000BD4680BD80B483B000AF03463960FB71CF
:100D800097F90730002B0BDA0D49FB7903F00F03BD
:100D9000043B3A68D2B21201D2B20B441A7609E08F
:100DA000084997F907303A68D2B21201D2B20B441F
:100DB00083F800230C37BD465DF8047B704700BF05
:100DC00000ED00E000E100E080B582B000AF7860A7
:100DD0007B68B3F1807F01D3012311E00A4A7B686D
:100DE00023F07F43013B53604FF0FF300F21FFF7AB
:100DF000C1FF054B00229A60034B07221A600023B3
:100E000018460837BD4680BD10E000E080B500AF51
:100E100000BF064B1B68064AA2FB03239B0C184627
:100E2000FFF7D2FF0346002BF3D180BDB0160020A0
:100E300083DE1B4380B400AF064B1B68002B04D03D
:100E4000044B1B68013B034A1360BD465DF8047BFD
:100E5000704700BFC416002080B483B000AF786034
:100E6000064A7B68136000BF044B1B68002BFBD154
:100E70000C37BD465DF8047B704700BFC4160020E8
:100E800080B400AF064B4FF47A721A6000BF044B77
:100E90001B68002BFBD1BD465DF8047B704700BF8B
:100EA000C416002080B582B000AF786001E0FFF783
:100EB000E7FF7B685A1E7A60002BF8D10837BD46E1
:100EC00080BD00BF80B582B000AF0420012100F0DA
:100ED000EBF94FF460533B600023BB7101233B717E
:100EE0000023FB7102237B713B460348194600F047
:100EF00017FA0837BD4680BD0008024080B584B0AF
:100F000000AF03460A46FB711346BB71FB790C33F5
:100F1000012202FA03F3FB81BB79012B05D1FB8986
:100F20000648194600F0A4FA04E0FB890348194674
:100F300000F0ACFA1037BD4680BD00BF000802408B
:100F400080B582B000AF0220012100F0ADF904208D
:100F5000012100F0A9F944F202033B600023BB71B8
:100F600001233B710023FB7102237B713B46134835
:100F7000194600F0D5F94FF400533B600023BB71D4
:100F800000233B710023FB7102237B713B460B481E
:100F9000194600F0C5F94FF440633B600023BB7174
:100FA00001233B710023FB7102237B713B46044804
:100FB000194600F0B5F90837BD4680BD000402406F
:100FC0000008024080B582B000AF0346FB71FB7998
:100FD000034802211A4600F067FA0837BD4680BD73
:100FE0000004024080B582B000AF0346FB71FB797C
:100FF00004484FF400611A4600F056FA0837BD461F
:1010000080BD00BF0008024080B582B000AF03463B
:10101000FB71FB7904484FF480611A4600F044FAF2
:101020000837BD4680BD00BF0008024080B582B0D1
:1010300000AF0346FB71FB7904484FF480411A4628
:1010400000F032FA0837BD4680BD00BF0004024000
:1010500080B582B000AF0346FB71FB7903481021D5
:101060001A4600F021FA0837BD4680BD0000024054
:1010700080B500AF03484FF4005100F0DFF903469C
:10108000184680BD0004024080B588B000AF012042
:10109000012100F009F9E023BB610023BB770223A3
:1010A0003B770223FB7702237B7707F11803254860
:1010B000194600F035F923480521052200F00CFA05
:1010C00020480621052200F007FA1E4807210522C4
:1010D00000F002FA1023BB610023BB7701233B77AA
:1010E0000123FB7702237B7707F118031548194684
:1010F00000F016F91348102100F0BAF94FF48050AF
:10110000012100F0EFF828233B820023BB8100235C
:101110007B8100233B810023BB8000237B824FF433
:101120008273FB804FF44073FB813B1D06481946D8
:1011300000F0C0FA0448012100F000FB2037BD4652
:1011400080BD00BF000002400030014080B582B089
:1011500000AF0346FB71FB799BB21248194600F0C1
:101160001BFB00BF0F48022100F024FB0346002BAD
:10117000F8D000BF0B48012100F01CFB0346002BF8
:10118000F8D000BF0748802100F014FB0346002B75
:10119000F8D1044800F0F2FA0346DBB218460837EB
:1011A000BD4680BD0030014080B584B000AF78609E
:1011B0000B467B800023FB730023BB810020FFF7DD
:1011C00047FF0023BB810BE07B685A1C7A601B78C9
:1011D0001846FFF7BBFF0346FB73BB890133BB8196
:1011E000BA897B889A42EFD30120FFF731FFFB7B5E
:1011F00018461037BD4680BD80B582B000AF104B99
:101200007B60104B3B6007E03B681A1D3A607A68D0
:10121000111D796012681A603B680B4A9342F3D340
:101220000A480B494FF000028842B8BF40F8042B2F
:10123000FADB00F099F900F011F80837BD4680BDDF
:10124000C619000800000020C4160020C4160020A3
:10125000C816002080B400AFFEE700BF80B500AF25
:10126000FFF7D4FDFFF72EFEFFF76AFEFFF70CFF36
:10127000FEF78AFF01200121FFF740FE0648FFF735
:1012800085FAFEF7FFFF01200021FFF737FE4FF43C
:10129000FA70FFF707FEFAE70000002080B500AF04
:1012A000FFF7C8FD80BD00BF80B483B000AF786099
:1012B0000B46FB70FB78002B06D00949084B1A6BD4
:1012C0007B6813430B6306E00549054B1A6B7B688B
:1012D000DB4313400B630C37BD465DF8047B70475E
:1012E0000038024080B483B000AF78600B46FB70DA
:1012F000FB78002B06D00949084B5A6C7B681343D6
:101300004B6406E00549054B5A6C7B68DB43134090
:101310004B640C37BD465DF8047B704700380240D3
:1013200080B487B000AF7860396000237B61002310
:101330003B610023FB6000237B6176E07B69012237
:1013400002FA03F33B613B681A683B691340FB6098
:10135000FA683B699A4265D17B681A687B695B00D1
:10136000194603238B40DB431A407B681A607B6875
:101370001A683B681B7919467B695B0001FA03F325
:101380001A437B681A603B681B79012B03D03B68CA
:101390001B79022B2ED17B689A687B695B0019460A
:1013A00003238B40DB431A407B689A607B689A6812
:1013B0003B685B7919467B695B0001FA03F31A43CA
:1013C0007B689A607B685A687B699BB219460123E7
:1013D0008B40DB431A407B685A607B685B683A68E5
:1013E000927911467A6992B201FA02F292B21A43E4
:1013F0007B685A607B68DA687B699BB25B0003217B
:1014000001FA03F3DB431A407B68DA607B68DA6831
:101410003B68DB7919467B695B0001FA03F31A43E9
:101420007B68DA607B6901337B617B690F2B85D92F
:101430001C37BD465DF8047B704700BF80B485B0A3
:1014400000AF78600B467B800023FB737B681A69D2
:101450007B881340002B02D00123FB7301E00023A3
:10146000FB73FB7B18461437BD465DF8047B704761
:1014700080B483B000AF78600B467B807B687A884D
:101480001A830C37BD465DF8047B704780B483B087
:1014900000AF78600B467B807B687A885A830C3774
:1014A000BD465DF8047B704780B483B000AF7860C0
:1014B0000B467B8013467B707B78002B03D07B68C8
:1014C0007A881A8302E07B687A885A830C37BD4693
:1014D0005DF8047B704700BF80B485B000AF7860D2
:1014E0000B467B8013467B700023FB600023BB60B0
:1014F0007B787A8802F0070292009340FB607B8839
:10150000DB089BB218467B88DB089BB21A467B68D7
:10151000083253F822207B8803F007039B0019460A
:101520000F238B40DB4302EA03017B6800F10802D2
:1015300043F822107B88DB089BB21A467B6808328E
:1015400053F82220FB681343BB607B88DB089BB207
:101550001A467B680832B96843F822101437BD4632
:101560005DF8047B704700BF80B500AF114A114B96
:101570001B6843F0010313600E4B00229A600D4A72
:101580000C4B1B6823F0847323F480331360094BE6
:10159000094A5A60074A074B1B6823F480231360EB
:1015A000044B0022DA6000F00BF8044B4FF00062AD
:1015B0009A6080BD003802401030002400ED00E049
:1015C00080B483B000AF00237B6000233B60354ACA
:1015D000344B1B6843F480331360324B1B6803F4B5
:1015E00000333B607B6801337B603B68002B03D199
:1015F0007B68B3F5A06FF0D12A4B1B6803F400336E
:10160000002B02D001233B6001E000233B603B68DC
:10161000012B42D1234A234B1B6C43F080531364AC
:10162000214A214B1B6843F4804313601D4A1D4B24
:101630009B6893601B4A1B4B9B6843F40043936079
:10164000184A184B9B6843F4A0539360154B174AF4
:101650005A60144A134B1B6843F08073136000BF39
:10166000104B1B6803F00073002BF9D0104B40F2B5
:1016700005621A600B4A0B4B9B6823F003039360CF
:10168000084A084B9B6843F00203936000BF054B78
:101690009B6803F00C03082BF9D10C37BD465DF8AD
:1016A000047B70470038024000700040105440072F
:1016B000003C024080B485B000AF78603960002300
:1016C000FB817B681B88FB81FB8903F44153FB8111
:1016D0003B681A883B685B8813439AB23B689B88D7
:1016E00013439AB23B68DB8813439AB23B681B8969
:1016F00013439AB23B685B8913439AB23B689B8958
:1017000013439AB23B68DB8913439AB2FB891343B4
:10171000FB817B68FA891A807B689B8B9BB223F4E0
:1017200000639AB27B689A833B681A8A7B681A8244
:101730001437BD465DF8047B704700BF80B483B0AA
:1017400000AF78600B46FB70FB78002B08D07B68FD
:101750001B889BB243F040039AB27B681A8007E073
:101760007B681B889BB223F040039AB27B681A8087
:101770000C37BD465DF8047B704700BF80B483B072
:1017800000AF78607B689B899BB218460C37BD46DA
:101790005DF8047B704700BF80B483B000AF786011
:1017A0000B467B807B687A889A810C37BD465DF852
:1017B000047B704780B485B000AF78600B467B80B7
:1017C0000023FB737B681B899AB27B8813409BB212
:1017D000002B02D00123FB7301E00023FB73FB7B92
:1017E00018461437BD465DF8047B704770B4840713
:1017F00046D0541E002A41D0CDB2034602E0621EFC
:10180000E4B3144603F8015B9A07F8D1032C2ED9F0
:10181000CDB245EA05250F2C45EA054519D903F156
:1018200010022646103E0F2E42F8105C42F80C5C67
:1018300042F8085C42F8045C02F11002F2D8A4F10C
:10184000100222F00F0204F00F041032032C134494
:101850000DD91E462246043A032A46F8045BFAD8FC
:10186000221F22F003020432134404F003042CB1BB
:10187000C9B21C4403F8011BA342FBD170BC7047E2
:1018800014460346C2E700BF008040C020A060E0CD
:10189000109050D030B070F0088848C828A868E888
:1018A000189858D838B878F8048444C424A464E458
:1018B000149454D434B474F40C8C4CCC2CAC6CEC28
:1018C0001C9C5CDC3CBC7CFC028242C222A262E228
:1018D000129252D232B272F20A8A4ACA2AAA6AEA28
:1018E0001A9A5ADA3ABA7AFA068646C626A666E6F8
:1018F000169656D636B676F60E8E4ECE2EAE6EEEC8
:101900001E9E5EDE3EBE7EFE018141C121A161E1DF
:10191000119151D131B171F1098949C929A969E9F7
:10192000199959D939B979F9058545C525A565E5C7
:10193000159555D535B575F50D8D4DCD2DAD6DED97
:101940001D9D5DDD3DBD7DFD038343C323A363E397
:10195000139353D333B373F30B8B4BCB2BAB6BEB97
:101960001B9B5BDB3BBB7BFB078747C727A767E767
:10197000179757D737B777F70F8F4FCF2FAF6FEF37
:101980001F9F5FDF3FBF7FFF70027240700F7300C9
:10199000700B72027001720000007FFFFE000000F9
:1019A00070087202700972C270047203700B7200C8
:1019B0007003720170037200700272067002720787
:0619C00070047280700A41
:1019C60000000080FF3F0000000000000000000053
:1019D6000000000000000000000000000000000001
:1019E60000000000FCFFFF030000000000000000F4
:1019F60000000000000000000000000000000000E1
:101A06000000000080FFFFFF1F0000000000000034
:101A160000000000000000000000000000000000C0
:101A26000000000000E0FFFFFF7F00000000000054
:101A360000000000000000000000000000000000A0
:101A4600000000000000F8FFFFFFFF01000000009B
:101A56000000000000000000000000000000000080
:101A660000000000000000FCFFFFFFFF0300000075
:101A76000000000000000000000000000000000060
:101A86000000000000000000FFFFFFFFFF0F000046
:101A96000000000000000000000000000000000040
:101AA6000000000000000000C0FFFFFFFFFF3F0036
:101AB6000000000000000000000000000000000020
:101AC600000000000000000000E0FFFFFFFFFF7FB6
:101AD6000000000000000000000000000000000000
:101AE60000000000000000000000F0FFFFFFFFFF05
:101AF600FF000000000000000000000000000000E1
:101B06000000000000000000000000F8FFFFFFFFDB
:101B1600FFFF0100000000000000000000000000C0
:101B2600000000000000000000000000FCFFFFFFB6
:101B3600FFFFFF030000000000000000000000009F
:101B460000000000000000000000000000FEFFFF93
:101B5600FFFFFFFF0700000000000000000000007C
:101B66000000000000000000000000000000FFFF71
:101B7600FFFFFFFFFF0F0000000000000000000055
:101B8600000000000000000000000000000080FFD0
:101B9600FFFFFFFFFFFF1F00000000000000000026
:101BA60000000000000000000000000000000080AF
:101BB600FFFFFFFFFFFFFF3F0000000000000000E7
:101BC600000000000000000000000000000000000F
:101BD600C0FFFFFF00F0FFFF3F0000000000000015
:101BE60000000000000000000000000000000000EF
:101BF60000E0FFFF1F0080FFFF7F000000000000E5
:101C060000000000000000000000000000000000CE
:101C16000000E0FFFF070000FEFFFF0000000000DD
:101C260000000000000000000000000000000000AE
:101C3600000000F0FFFF010000F8FFFF00000000B9
:101C4600000000000000000000000000000000008E
:101C560000000000F8FFFF000000F0FFFF01000099
:101C6600000000000000000000000000000000006E
:101C76000000000000F8FF7F000000E0FFFF010009
:101C8600000000000000000000000000000000004E
:101C9600000000000000FCFF3F000000C0FFFF0343
:101CA600000000000000000000000000000000002E
:101CB60000000000000000FCFF1F00000080FFFF86
:101CC600030000000000000000000000000000000B
:101CD6000000000000000000FCFF0F00000000FFF5
:101CE600FF070000000000000000000000000000E8
:101CF600000000000000000000FEFF0700000000DA
:101D0600FEFF0700000000000000000000000000C9
:101D160000000000000000000000FEFF03000000BD
:101D260000FCFF07000000000000000000000000AB
:101D36000000000000000000000000FEFF0300009D
:101D46000000FCFF0F000000000000000000000083
:101D5600000000000000000000000000FFFF01007E
:101D6600000000F8FF0F0000000000000000000067
:101D760000000000000000000000000000FFFF015E
:101D860000000000F8FF0F00000000000000000047
:101D960000000000000000000000000000F0FFFF4F
:101DA6000100000000F0FF0F00000000000000002E
:101DB6000000000000000000000000000000F0FF2E
:101DC600FF0000000000F0FF1F00F0FF01F83F00D9
:101DD6001E003EE003FF3FC0FF03F07F001EF0F849
:101DE60000000000000000F0FF1F00F0FF01FC7F74
:101DF600001E007CF001FF3FC0FF03F8FF001EF04D
:101E0600F000000000000000E0FF1F00F0FF03FCF0
:101E16007F001E007CF800FF3FC0FF03F8FF011E95
:101E2600F00000000000000000E0FF1F00F0C0030B
:101E36001CF0001E00F87800E001C001007CE00103
:101E46001EF00000000000000000E0FF1F00F0C0D0
:101E5600031EF0001E00F07D00E001C001003CE022
:101E6600011EF00000000000000000E0FF1F00F06F
:101E7600C0031EF0001E00E03F00E001C001003C70
:101E8600E0011EF00000000000000000E0FF1F005F
:101E9600F0C0031EF0001E00E01F00E001C0FF01BD
:101EA6003C0000FEFF0000000000000000E0FF1FF5
:101EB60000F0FF031EF0001E00C01F00E001C0FF7F
:101EC600013C0000FEFF0000000000000000E0FFF3
:101ED6001F00F0FF011EF0001E00800F00E001C091
:101EE600FF013C0000FEFF0000000000000000E0D3
:101EF600FF1F00F0FF001EF0001E00800700E0013B
:101F0600C001003CE0013EF00000000000000000BF
:101F1600E0FF1F00F03F001EF0001E00800700E0FB
:101F260001C001003CE0011EF000000000000000BE
:101F360000E0FF1F00F000001EF0001E00800700FA
:101F4600E001C001003CE0011EF0000000000000BE
:101F56000000E0FF1F00F000003CF8001E008007B4
:101F660000E001C001007CF0011EF000000000004E
:101F7600000000E0FF1F00F00000FC7F00FE1F8055
:101F86000700E001C0FF03F8FF011EF0000000009B
:101F960000000000F0FF1F00F00000FC7F00FE1FA5
:101FA600800700E001E0FF03F0FF001EF000FFFFE6
:101FB6000000000000F0FF1F00F00000F01F00FE10
:101FC6000F800700E001C0FF03E07F001CF000FF68
:101FD600FF0100000000F0FF0F00000000000000FD
:101FE60000000000000000000000000000000000EB
:101FF600FFFF0100000000F8FF0F000000000000D6
:1020060000000000000000000000000000000000CA
:1020160000FFFF0300000000F8FF0F0000000000B3
:1020260000000000000000000000000000000000AA
:102036000000FFFF0300000000FCFF0F000000008F
:10204600000000000000000000000000000000008A
:10205600000000FFFF0700000000FEFF0700000071
:10206600000000000000000000000000000000006A
:1020760000000000FFFF0700000000FEFF07000051
:10208600000000000000000000000000000000004A
:102096000000000000FFFF0F00000000FFFF03002C
:1020A600000000000000000000000000000000002A
:1020B600000000000000FFFF1F00000080FFFF037C
:1020C60000F0C0833F3838FFE30FFE3180018C7F7C
:1020D600F8070000000000FFFF3F000000C0FFFF00
:1020E6000100F0C0C37F7838FFF31FFF7180018EB7
:1020F6007FF80F0000000000FFFF7F000000E0FFF8
:10210600FF0100F0E1E3607838387038067080012E
:102116008E03180E0000000000FFFFFF000000F015
:10212600FFFF0000F0E163E0F83830703806708099
:10213600018E01180C0000000000FFFFFF030000E5
:10214600FCFFFF0000F06163E0D83930703806709C
:1021560080018E01180C0000000000FFFFFF0F0039
:1021660000FEFF7F0000F07363E0D839307038FE60
:102176007180018E7F180C0000000000FFFFFF3FFA
:1021860000C0FFFF7F0000703363E0983B30F03FF4
:10219600FE7180018E7FF80F0000000000FFFFFF38
:1021A600FF03FCFFFF3F0000703763E0983B30F011
:1021B6001F067080018E01F80F0000000000FFFF6F
:1021C600FFFFFFFFFFFF1F0000703F63E0183F3077
:1021D6007000067080018E01180E0000000000FFDE
:1021E600FFFFFFFFFFFFFF0F0000701EE3E0183E3A
:1021F600307000067080018E01180C00000000008F
:10220600FFFFFFFFFFFFFFFF0F0000701EE37F18B9
:102216003E307000FFF18F7F8E7F180C00000000AB
:1022260000FFFFFFFFFFFFFFFF070000701CC37FDB
:10223600183C306000FEF18F7F8E7F180C00000086
:102246000000FFFFFFFFFFFFFFFF0300000000008D
:102256000600000000000000000000000000000072
:10226600000000FFFFFFFFFFFFFFFF01000000006F
:102276000000000000000000000000000000000058
:1022860000000000FFFFFFFFFFFFFFFF0000000050
:102296000000000000000000000000000000000038
:1022A6000000000000FFFFFFFFFFFFFF3F000000F0
:1022B6000000000000000000000000000000000018
:1022C600000000000000FFFFFFFFFFFFFF1F0000F0
:1022D60000000000000000000000000000000000F8
:1022E60000000000000000FF7FFFFFFFFFFF0F0060
:1022F60000000000000000000000000000000000D8
:102306000000000000000000FE7FFCFFFFFFFF034F
:1023160000000000000000000000000000000000B7
:10232600000000000000000000FE7FF0FFFFFFFF3E
:102336000000000000000000000000000000000097
:1023460000000000000000000000FE7FC0FFFFFF4D
:102356003F00000000000000000000000000000038
:102366000000000000000000000000FC7F00FFFFEE
:10237600FF0F000000000000000000000000000049
:10238600000000000000000000000000FC7F00F8D4
:10239600FFFF010000000000000000000000000038
:1023A60000000000000000000000000000F87F00B0
:1023B60000FE070000000000000000000000000012
:1023C6000000000000000000000000000000F07F98
:1023D60000000000000000000000000000000000F7
:1023E600000000000000000000000000000000E007
:1023F6007F00000000000000000000000000000058
:1024060000000000000000000000000000000000C6
:10241600C07F000000000000000000000000000077
:1024260000000000000000000000000000000000A6
:1024360000007E0000000000000000000000000018
:102446000000000000000000000000000000000086
:102456000000000000000000000000000000000076
:102466000000000000000000000000000000000066
:102476000000000000000000000000000000000056
:102AA6000000000000000000000000000000001808
:102AB6000300000000000018C00000000000000035
:102AC60000000000000000000000000000181800D0
:102AD600180300C06030000018C000180000000095
:102AE60000000000000000000000000000001818B0
:102AF60000180300C06030000018C0001800000075
:102B060000000000000000000000000000000018A7
:102B1600180018030080F118000018C00018000003
:102B2600000000000000000000000000000000009F
:102B360018187C18830780A1183C981BFC00180005
:102B4600000000000000000000000000000000007F
:102B5600001818FF18E31F80D118FFF81BFF001894
:102B6600000000000000000000000000000000005F
:102B76000000F81FC3196318009118C33818C30062
:102B86001800000000000000000000000000000027
:102B9600000000F89F81193330809B89811998C104
:102BA6000018000000000000000000000000000007
:102BB600000000001898FF19333000938D81199892
:102BC600C100180000000000000000000000000026
:102BD60000000000001898FF193330000B8D811992
:102BE60098C100080000000000000000000000007E
:102BF600000000000000189801187330000A8D8349
:102C06001998C1000000000000000000000000004C
:102C16000000000000000018188319631C000E074E
:102C2600E31898E300000000000000000000000028
:102C360000000000000000001818FF19E31F000E36
:102C460007FF1818FF001800000000000000000031
:102C560000000000000000000018187C1883070020
:102C660006063C1818DE00180000000000000000F0
:102C7600000000000000000000000000000000004E
:102C8600000000000000000000000000000000003E
:102C9600000000000000000000000000000000002E
:102CA600000000000000000000000000000000001E
:10307600007A030A000000000000000001020304B9
:043086000607080928
:0400000508000000EF
:00000001FF
