:020000040800F2
:10000000C81E0020A51100080512000805120008EE
:100010000512000805120008051200080000000083
:1000200000000000000000000000000005120008B1
:1000300005120008000000000512000869120008FF
:100040000512000805120008051200080512000834
:100050000512000805120008051200080512000824
:100060000512000805120008051200080512000814
:100070000512000805120008051200080512000804
:1000800005120008051200080512000805120008F4
:1000900005120008051200080512000805120008E4
:1000A00005120008051200080512000805120008D4
:1000B00005120008051200080512000805120008C4
:1000C00005120008051200080512000805120008B4
:1000D00005120008051200080512000805120008A4
:1000E0000512000805120008051200080512000894
:1000F0000512000805120008051200080512000884
:100100000512000805120008051200080512000873
:100110000512000805120008051200080512000863
:100120000512000805120008051200080512000853
:100130000512000805120008051200080512000843
:100140000512000805120008051200080512000833
:100150000512000805120008051200080512000823
:100160000512000805120008051200080512000813
:100170000512000805120008051200080512000803
:10018000051200080512000880B500AF00F026F83F
:1001900002E00A2000F05AFE00F036FF0346002B72
:1001A000F7D100F0A3F800F0B7F800F0D3F800F0B2
:1001B000F1F800F00DF9D12000F02CF900F04EF923
:1001C00000F06AF900F086F900F0C0F900F0DCF9FF
:1001D0000A2000F061FE00F0F5F980BD80B582B024
:1001E00000AF0023FB71002000F0C8FE002000F0EB
:1001F000B5FE002000F0D4FE002000F0E3FE002059
:1002000000F0F2FE002000F06DFF0346FB710020BD
:1002100000F068FF0346FB71052000F03DFE012061
:1002200000F09CFE0A2000F037FE012000F0DCFE0A
:10023000012000F0A3FE012000F0C4FE0A2000F01F
:100240002BFE002000F09AFE0A2000F025FE01207F
:1002500000F094FE0A2000F01FFE0837BD4680BD66
:1002600080B582B000AF00237B6000F01BFB786894
:100270000021042200F030FB142000F00DFEC82005
:1002800000F060FD00F044F900F060F9032000F098
:10029000C7F9012000F0C4F94FF4AF7000F0FCFD85
:1002A00000F042FA002000F0BBF9012000F0B2F8A3
:1002B0004B2000F0F1FD002000F084FE002000F053
:1002C0004DFE142000F0E8FD002000F057FE002055
:1002D00000F08AFE012000F063FEC82000F0DCFD83
:1002E000012000F05DFE0837BD4680BD80B582B0BC
:1002F00000AF71233B7100237B713B1D1846022127
:1003000000F01EFF3B1D1846022100F019FF0346B6
:1003100018460837BD4680BD80B582B000AF0023C7
:10032000FB800B4A3B46106818603B46184602218A
:1003300000F006FF0346FB803B46023318460221CD
:1003400000F0FEFE0346FB800837BD4680BD00BFBF
:100350006C18000880B582B000AF0023FB800C4A07
:100360003B46106818603B461846022100F0E8FE44
:100370000346FB803B4602331846022100F0E0FEB4
:100380000346DBB2DB09DBB218460837BD4680BD49
:100390007018000880B582B000AF0023FB800B4AC4
:1003A0003B46106818603B461846022100F0C8FE24
:1003B0000346FB803B4602331846042100F0C0FE92
:1003C0000346FB800837BD4680BD00BF7418000897
:1003D00080B584B000AF0023FB810D4A3B46106816
:1003E000516803C31189927A19809A703B46184666
:1003F000022100F0A5FE0346FB813B46023318466E
:100400000B2100F09DFE0346FB811037BD4680BDE9
:100410007818000880B584B000AF0346FB71002354
:10042000FB8170233B7207237B727223BB72FB79C3
:10043000FB7207F108031846022100F081FE034613
:10044000FB8107F1080302331846042100F078FE0F
:100450000346FB811037BD4680BD00BF80B582B02A
:1004600000AF0023FB800B4A3B46106818603B46F8
:100470001846022100F064FE0346FB803B4602332F
:100480001846022100F05CFE0346FB800837BD469B
:1004900080BD00BF8418000880B582B000AF002383
:1004A000FB800B4A3B46106818603B461846022109
:1004B00000F046FE0346FB803B460233184602210D
:1004C00000F03EFE0346FB800837BD4680BD00BFFE
:1004D0008818000880B582B000AF0023FB800B4A6B
:1004E0003B46106818603B461846022100F028FE83
:1004F0000346FB803B4602331846022100F020FEF3
:100500000346FB800837BD4680BD00BF8C1800083D
:1005100080B582B000AF0023FB800B4A3B461068D9
:1005200018603B461846022100F00AFE0346FB8095
:100530003B4602331846022100F002FE0346FB80D0
:100540000837BD4680BD00BF9018000880B582B056
:1005500000AF0023FB800B4A3B46106818603B4607
:100560001846022100F0ECFD0346FB803B460233B7
:100570001846022100F0E4FD0346FB800837BD4623
:1005800080BD00BF9418000880B582B000AF002382
:10059000FB800B4A3B46106818603B461846022118
:1005A00000F0CEFD0346FB803B4602331846022195
:1005B00000F0C6FD0346FB800837BD4680BD00BF86
:1005C0009818000880B582B000AF0023FB710023AB
:1005D000BB800023FB711CE0012000F021F8C82043
:1005E00000F05AFC032000F01BF8642000F054FCDB
:1005F0000F2000F015F8282000F04EFC00F034F831
:100600000346002B02D000F053F805E0FB790133DC
:10061000FB71FB79032BDFD90837BD4680BD00BFD6
:1006200080B584B000AF0346FB710023FB817023CB
:100630003B7205237B727223BB72FB79FB7207F15D
:1006400008031846022100F07BFD0346FB8107F1F9
:10065000080302331846022100F072FD0346FB81B5
:100660001037BD4680BD00BF80B582B000AF00230B
:10067000FB800E4A3B46106818603B461846022134
:1006800000F05EFD0346FB803B4602331846022124
:1006900000F056FD034603F04003002B0CBF00237F
:1006A0000123DBB218460837BD4680BD701800082C
:1006B00080B582B000AF0023FB800B4A3B46106838
:1006C00018603B461846022100F03AFD0346FB80C5
:1006D0003B4602331846022100F032FD0346FB8000
:1006E0000837BD4680BD00BF9C18000880B582B0A9
:1006F00000AF0023FB800B4A3B46106818603B4666
:100700001846022100F01CFD0346FB803B460233E5
:100710001846022100F014FD0346FB800837BD4651
:1007200080BD00BFA018000880B582B000AF0023D4
:10073000FB800B4A3B46106818603B461846022176
:1007400000F0FEFC0346FB803B46023318460221C4
:1007500000F0F6FC0346FB800837BD4680BD00BFB5
:10076000A418000880B582B000AF7860786800F007
:100770000DF8786800F02AF8786800F073F83220F5
:1007800000F0E0FA0837BD4680BD00BF80B584B0F8
:1007900000AF78600023FB810023FB810FE0FB8921
:1007A000162202FB03F37A681A44FB89DBB2104677
:1007B0001946002200F090F8FB890133FB81FB8988
:1007C000AF2BECD91037BD4680BD00BF80B584B0DB
:1007D00000AF78600023FB8100237B7300233B7311
:1007E00000237B7337E000233B732EE00023FB8163
:1007F0000FE0FB89162202FB03F37A681A44FB8997
:10080000DBB210461946022200F066F8FB8901337C
:10081000FB81FB89AF2BECD90023FB810FE0FB8927
:10082000162202FB03F37A681A44FB89DBB21046F6
:100830001946012200F050F8FB890133FB81FB8946
:10084000AF2BECD93B7B01333B733B7B012BCDD9E9
:100850007B7B01337B737B7B012BC4D91037BD4677
:1008600080BD00BF80B584B000AF78600023FB81FD
:100870000023FB810FE0FB89162202FB03F37A6859
:100880001A44FB89DBB210461946032200F024F813
:10089000FB890133FB81FB89AF2BECD91037BD46B7
:1008A00080BD00BF80B582B000AF0023FB71002384
:1008B0003B600023FB7108E0FB793868194604228D
:1008C00000F00AF8FB790133FB71FB79AF2BF3D908
:1008D0000837BD4680BD00BF80B5BEB000AF7860B0
:1008E00013460A46FA70BB70002387F8F73007F109
:1008F000C80300221A60043300221A600433002265
:100900001A60043300221A60043300221A60043390
:1009100000221A60043300221A60043300221A6095
:10092000043300221A60043300221A6004330022C8
:100930001A600433BB78052B11D0FB789B08DBB21F
:10094000C3F12C0397F8F72002F00302032101FA08
:1009500002F2D2B207F1F8010B4403F8302C07F190
:10096000A40300221A60043300221A600433002218
:100970001A60043300221A60043300221A60043320
:1009800000221A60043300221A60043300221A6025
:10099000043300221A70013307F1800300221A6029
:1009A000043300221A60043300221A600433002248
:1009B0001A60043300221A60043300221A600433E0
:1009C00000221A60043300221A60043300221A70D5
:1009D0000133BB78042B00F03581BB78052B00F088
:1009E0003181212387F8F73027E1002387F8F6309B
:1009F00097F8F730C3F1210397F8F72079680A4494
:100A0000127822F05502D2B207F1F8010B4403F834
:100A1000542C97F8F730C3F1210397F8F720C2F16F
:100A2000210207F1F8010A4412F8542C5208D2B2FC
:100A300007F1F8010B4403F8542C97F8F730C3F191
:100A4000210397F8F720C2F1210207F1F8010A44C7
:100A500012F8542C62F05502D2B207F1F8010B449F
:100A600003F8542C97F8F730013B97F8F720796892
:100A70000A44127802F05502D2B207F1F8010B4491
:100A800003F8782C97F8F730013B97F8F720013AF4
:100A900007F1F8010A4412F8782C62F05502D2B23C
:100AA00007F1F8010B4403F8782CBB78012B00F018
:100AB0009880022B2BD0002B00D0B9E097F8F730AC
:100AC000C3F1210397F8F720C2F1210207F1F801E1
:100AD0000A4412F8542C82F05502D2B207F1F80100
:100AE0000B4403F8542C97F8F730013B97F8F720A4
:100AF000013A07F1F8010A4412F8782C82F0550205
:100B0000D2B207F1F8010B4403F8782C90E097F883
:100B1000F730C3F1210307F1F802134413F8543CF2
:100B200023F0550387F8F63097F8F730C3F1210327
:100B300097F8F720C2F1210207F1F8010A4412F8F0
:100B4000542C5200D2B207F1F8010B4403F8542C94
:100B500097F8F730C3F1210397F8F720C2F121028B
:100B600007F1F8010A4412F8541C97F8F6200A43DA
:100B7000D2B207F1F8010B4403F8542C97F8F73080
:100B8000013B07F1F802134413F8783C23F05503B6
:100B900087F8F63097F8F730013B97F8F720013ADD
:100BA00007F1F8010A4412F8782C5200D2B207F18A
:100BB000F8010B4403F8782C97F8F730013B97F8CD
:100BC000F720013A07F1F8010A4412F8781C97F867
:100BD000F6200A43D2B207F1F8010B4403F8782C4F
:100BE00026E097F8F730C3F1210397F8F720C2F118
:100BF000210207F1F8010A4412F8542CD243D2B270
:100C000007F1F8010B4403F8542C97F8F730013B37
:100C100097F8F720013A07F1F8010A4412F8782C06
:100C2000D243D2B207F1F8010B4403F8782C00BF8D
:100C300097F8F730013B87F8F73097F8F730002B3B
:100C40007FF4D3AE07F110027023104600211A463C
:100C500000F0C2FD72233B74002387F8F73013E0E5
:100C600097F8F730023397F8F72007F1F8010A44B4
:100C700012F8542C07F1F8010B4403F8E82C97F80C
:100C8000F730013387F8F73097F8F730202BE7D9A2
:100C9000002387F8F73013E097F8F730233397F8FD
:100CA000F72007F1F8010A4412F8302C07F1F80197
:100CB0000B4403F8E82C97F8F730013387F8F73046
:100CC00097F8F7302B2BE7D9002387F8F73013E09C
:100CD00097F8F7304F3397F8F72007F1F8010A44F7
:100CE00012F8782C07F1F8010B4403F8E82C97F878
:100CF000F730013387F8F73097F8F730202BE7D932
:100D00000F4A07F10C0312881A80002387F8F53088
:100D100007F10C031846022100F012FA034687F887
:100D2000F53007F110031846702100F009FA034668
:100D300087F8F530FFF7DAFCF837BD4680BD00BF15
:100D4000A818000880B582B000AF0346FB710020F0
:100D500000F038F9FB79184600F09EF8012000F009
:100D600031F90837BD4680BD80B483B000AF03467B
:100D70003960FB7197F90730002B0BDA0D49FB79CD
:100D800003F00F03043B3A68D2B21201D2B20B4413
:100D90001A7609E0084997F907303A68D2B2120189
:100DA000D2B20B4483F800230C37BD465DF8047BB8
:100DB000704700BF00ED00E000E100E080B582B0C8
:100DC00000AF78607B68B3F1807F01D3012311E02D
:100DD0000A4B7A6822F07F42013A5A604FF0FF30A6
:100DE0000F21FFF7C1FF054B00229A60034B07223A
:100DF0001A60002318460837BD4680BD10E000E0A9
:100E000080B500AF00BF064B1A68064BA3FB021368
:100E10009B0C1846FFF7D2FF0346002BF3D180BD91
:100E2000B016002083DE1B4380B400AF064B1B6866
:100E3000002B04D0044B1B685A1E034B1A60BD469E
:100E40005DF8047B704700BFC416002080B483B0F7
:100E500000AF7860064B7A681A6000BF044B1B68CD
:100E6000002BFBD10C37BD465DF8047B704700BFFB
:100E7000C416002080B400AF064B4FF47A721A609B
:100E800000BF044B1B68002BFBD1BD465DF8047B03
:100E9000704700BFC416002080B582B000AF7860F4
:100EA00001E0FFF7E7FF7B685A1E7A60002BF8D15C
:100EB0000837BD4680BD00BF80B582B000AF0420BA
:100EC000012100F0D7F94FF460533B600023BB7160
:100ED00001233B710023FB7102237B713B460348D6
:100EE000194600F003FA0837BD4680BD00080240ED
:100EF00080B584B000AF0346FB71FB790C3301224F
:100F000002FA03F3FB81FB890348194600F0CAFA91
:100F10001037BD4680BD00BF0008024080B584B0D8
:100F200000AF02460B46FA71BB71FB790C3301220C
:100F300002FA03F3FB81BB79012B05D1FB8906483B
:100F4000194600F07BFA04E0FB890348194600F0DB
:100F500083FA1037BD4680BD0008024080B582B0DC
:100F600000AF0346FB71FB79034802211A4600F0EB
:100F700081FA0837BD4680BD0004024080B582B0CA
:100F800000AF0346FB71FB7904484FF400611A4639
:100F900000F070FA0837BD4680BD00BF000802406F
:100FA00080B582B000AF0346FB71FB7904484FF473
:100FB00080611A4600F05EFA0837BD4680BD00BF6A
:100FC0000008024080B582B000AF0346FB71FB7998
:100FD00004484FF480411A4600F04CFA0837BD46E9
:100FE00080BD00BF0004024080B582B000AF034660
:100FF000FB71FB79034810211A4600F03BFA0837D1
:10100000BD4680BD0000024080B500AF03484FF4EC
:10101000005100F0F9F90346184680BD0004024073
:1010200080B588B000AF0120012100F023F9E02352
:10103000BB610023BB7702233B770023FB770223AE
:101040007B7707F118032548194600F04FF923482C
:101050000521052200F038FA20480621052200F07B
:1010600033FA1E480721052200F02EFA1023BB6137
:101070000023BB7701233B770123FB7702237B7798
:1010800007F118031548194600F030F913481021EC
:1010900000F0D4F94FF48050012100F009F9202329
:1010A0003B820023BB8100237B8100233B81002303
:1010B000BB8000237B824FF48273FB804FF440732C
:1010C000FB813B1D0648194600F0EAFA044801215D
:1010D00000F02AFB2037BD4680BD00BF0000024063
:1010E0000030014080B582B000AF0346FB71FB7950
:1010F0009BB21248194600F045FB00BF0F48022181
:1011000000F04EFB0346002BF8D000BF0B48012136
:1011100000F046FB0346002BF8D000BF07488021B3
:1011200000F03EFB0346002BF8D1044800F01CFB06
:101130000346DBB218460837BD4680BD003001408B
:1011400080B584B000AF78600B467B800023FB73D2
:101150000023BB810020FFF747FF0023BB8115E080
:101160007B685A1C7A601B781846FFF7BBFF034662
:10117000FB73BB89032B06D8BB8907F1100213440C
:10118000FA7B03F8082CBB890133BB81BA897B88C1
:101190009A42E5D30120FFF727FFFB7B1846103763
:1011A000BD4680BD80B582B000AF114B7B60114B56
:1011B0003B6007E03B681A1D3A607A68111D796050
:1011C00012681A603A680C4B9A42F3D30B480C49E8
:1011D0004FF000028842B8BF40F8042BFFF6FAAF88
:1011E00000F0B8F900F012F80837BD4680BD00BF26
:1011F000AC18000800000020C4160020C41600200F
:10120000C816002080B400AFFEE700BF80B500AF75
:10121000FFF7F6FDFFF750FE00200121FFF77EFEED
:10122000FFF7FEFEFEF7B0FFFFF71AF8FEF7ACFF80
:1012300000200021FFF772FE01200121FFF76EFE62
:101240000848FFF78FFAFFF70BF801200021FFF79E
:1012500065FE0020FFF74CFE4FF4FA70FFF71CFE0E
:10126000F7E700BF0000002080B500AFFFF7DCFD0E
:1012700080BD00BF80B483B000AF78600B46FB70C8
:10128000FB78002B06D0094B084A116B7A680A4399
:101290001A6306E0054B054A116B7A68D2430A408F
:1012A0001A630C37BD465DF8047B70470038024076
:1012B00080B483B000AF78600B46FB70FB78002BE6
:1012C00006D0094B084A516C7A680A435A6406E012
:1012D000054B054A516C7A68D2430A405A640C3770
:1012E000BD465DF8047B70470038024080B487B08B
:1012F00000AF7860396000237B6100233B610023ED
:10130000FB6000237B6176E07B69012202FA03F334
:101310003B613B681A683B691340FB60FA683B69B4
:101320009A4265D17B681A687B695B00032101FAE8
:1013300003F3DB431A407B681A607B681A683B68DA
:101340001B7919467B695B0001FA03F31A437B683A
:101350001A603B681B79012B03D03B681B79022B79
:101360002ED17B689A687B695B00032101FA03F345
:10137000DB431A407B689A607B689A683B685B79BC
:1013800019467B695B0001FA03F31A437B689A6094
:101390007B685A687B699BB2012101FA03F3DB4346
:1013A0001A407B685A607B685A683B689B7919468B
:1013B0007B699BB201FA03F39BB21A437B685A60C4
:1013C0007B68DA687B699BB25B00032101FA03F357
:1013D000DB431A407B68DA607B68DA683B68DB795C
:1013E00019467B695B0001FA03F31A437B68DA60F4
:1013F0007B6901337B617B690F2B85D91C37BD4627
:101400005DF8047B704700BF80B485B000AF7860A2
:101410000B467B800023FB737B681A697B88134033
:10142000002B02D00123FB7301E00023FB73FB7B45
:1014300018461437BD465DF8047B704780B483B00E
:1014400000AF78600B467B807B687A881A830C3704
:10145000BD465DF8047B704780B483B000AF786010
:101460000B467B807B687A885A830C37BD465DF8D3
:10147000047B704780B483B000AF786013460A469F
:101480007A807B707B78002B03D07B687A881A8304
:1014900002E07B687A885A830C37BD465DF8047B8E
:1014A000704700BF80B483B000AF78600B467B808C
:1014B0007B685A697B885A407B685A610C37BD4605
:1014C0005DF8047B704700BF80B485B000AF7860E2
:1014D00013460A467A807B700023FB600023BB60C2
:1014E0007A787B8803F007039B0002FA03F3FB6022
:1014F0007B88DB089BB21A467B88DB089BB21946C7
:101500007B68083153F821107B8803F007039B00A8
:101510000F2000FA03F3DB4319407B68083243F8DD
:1015200022107B88DB089BB21A467B68083253F88E
:101530002220FB681343BB607B88DB089BB21A4602
:101540007B680832B96843F822101437BD465DF84D
:10155000047B704780B500AF114B114A126842F00E
:1015600001021A600E4B00229A600D4A0C4B1B6858
:1015700023F0847323F480331360094B094A5A60C3
:10158000074B074A126822F480221A60044B00229B
:10159000DA6000F00BF8044B4FF000629A6080BDF7
:1015A000003802401030002400ED00E080B483B029
:1015B00000AF00237B6000233B60354B344A126848
:1015C00042F480321A60324B1B6803F400333B60F4
:1015D0007B6801337B603B68002B03D17B68B3F5EC
:1015E000A06FF0D12A4B1B6803F40033002B02D00C
:1015F00001233B6001E000233B603B68012B42D1AB
:10160000234B234A126C42F080521A64214B214A28
:10161000126842F480421A601D4B1D4A92689A601B
:101620001B4B1B4A926842F400429A60184B184ABE
:10163000926842F4A0529A60154B174A5A60144BB4
:10164000134A126842F080721A6000BF104B1B6888
:1016500003F00073002BF9D0104B40F205621A60C2
:101660000B4B0B4A926822F003029A60084B084A1F
:10167000926842F002029A6000BF054B9B6803F03B
:101680000C03082BF9D10C37BD465DF8047B70477D
:10169000003802400070004010544007003C0240F7
:1016A00080B485B000AF786039600023FB817B682F
:1016B0001B88FB81FB8903F44153FB813B681A883B
:1016C0003B685B8813439AB23B689B8813439AB28A
:1016D0003B68DB8813439AB23B681B8913439AB279
:1016E0003B685B8913439AB23B689B8913439AB268
:1016F0003B68DB8913439AB2FB891343FB817B6808
:10170000FA891A807B689B8B9BB223F400639AB2A0
:101710007B689A833B681A8A7B681A821437BD46B5
:101720005DF8047B704700BF80B483B000AF786081
:101730000B46FB70FB78002B08D07B681B889BB2A4
:1017400043F040039AB27B681A8007E07B681B88ED
:101750009BB223F040039AB27B681A800C37BD46D7
:101760005DF8047B704700BF80B483B000AF786041
:101770007B689B899BB218460C37BD465DF8047B9D
:10178000704700BF80B483B000AF78600B467B80A9
:101790007B687A889A810C37BD465DF8047B704778
:1017A00080B485B000AF78600B467B800023FB736C
:1017B0007B681B899AB27B8813409BB2002B02D0B6
:1017C0000123FB7301E00023FB73FB7B18461437F6
:1017D000BD465DF8047B7047F0B4840743D0541EC7
:1017E000002A3ED0CDB2034603E0621E002C38D062
:1017F000144603F8015B9A07F7D1032C2AD9CDB21E
:1018000045EA05250F2C45EA054515D9A4F1100731
:101810003F0903F1100606EB07161A4615605560DE
:101820009560D5601032B242F8D104F00F04013750
:10183000032C03EB07130DD91E462246043A032A54
:1018400046F8045BFAD8221F22F003020432134444
:1018500004F003042CB1C9B21C4403F8011BA342D9
:10186000FBD1F0BC704714460346C6E770027240D5
:10187000700F7300700B72027001720000007FFF26
:10188000FE00000070087202700972C270047203D8
:10189000700B7200700372017003720070027206A6
:0C18A0007002720770047280700A000071
:1018AC0000000080FF3F000000000000000000006E
:1018BC00000000000000000000000000000000001C
:1018CC0000000000FCFFFF0300000000000000000F
:1018DC0000000000000000000000000000000000FC
:1018EC000000000080FFFFFF1F0000000000000050
:1018FC0000000000000000000000000000000000DC
:10190C000000000000E0FFFFFF7F0000000000006F
:10191C0000000000000000000000000000000000BB
:10192C00000000000000F8FFFFFFFF0100000000B6
:10193C00000000000000000000000000000000009B
:10194C0000000000000000FCFFFFFFFF0300000090
:10195C00000000000000000000000000000000007B
:10196C000000000000000000FFFFFFFFFF0F000061
:10197C00000000000000000000000000000000005B
:10198C000000000000000000C0FFFFFFFFFF3F0051
:10199C00000000000000000000000000000000003B
:1019AC00000000000000000000E0FFFFFFFFFF7FD1
:1019BC00000000000000000000000000000000001B
:1019CC0000000000000000000000F0FFFFFFFFFF20
:1019DC00FF000000000000000000000000000000FC
:1019EC000000000000000000000000F8FFFFFFFFF7
:1019FC00FFFF0100000000000000000000000000DC
:101A0C00000000000000000000000000FCFFFFFFD1
:101A1C00FFFFFF03000000000000000000000000BA
:101A2C0000000000000000000000000000FEFFFFAE
:101A3C00FFFFFFFF07000000000000000000000097
:101A4C000000000000000000000000000000FFFF8C
:101A5C00FFFFFFFFFF0F0000000000000000000070
:101A6C00000000000000000000000000000080FFEB
:101A7C00FFFFFFFFFFFF1F00000000000000000041
:101A8C0000000000000000000000000000000080CA
:101A9C00FFFFFFFFFFFFFF3F000000000000000002
:101AAC00000000000000000000000000000000002A
:101ABC00C0FFFFFF00F0FFFF3F0000000000000030
:101ACC00000000000000000000000000000000000A
:101ADC0000E0FFFF1F0080FFFF7F00000000000000
:101AEC0000000000000000000000000000000000EA
:101AFC000000E0FFFF070000FEFFFF0000000000F9
:101B0C0000000000000000000000000000000000C9
:101B1C00000000F0FFFF010000F8FFFF00000000D4
:101B2C0000000000000000000000000000000000A9
:101B3C0000000000F8FFFF000000F0FFFF010000B4
:101B4C000000000000000000000000000000000089
:101B5C000000000000F8FF7F000000E0FFFF010024
:101B6C000000000000000000000000000000000069
:101B7C00000000000000FCFF3F000000C0FFFF035E
:101B8C000000000000000000000000000000000049
:101B9C0000000000000000FCFF1F00000080FFFFA1
:101BAC000300000000000000000000000000000026
:101BBC000000000000000000FCFF0F00000000FF10
:101BCC00FF07000000000000000000000000000003
:101BDC00000000000000000000FEFF0700000000F5
:101BEC00FEFF0700000000000000000000000000E5
:101BFC0000000000000000000000FEFF03000000D9
:101C0C0000FCFF07000000000000000000000000C6
:101C1C000000000000000000000000FEFF030000B8
:101C2C000000FCFF0F00000000000000000000009E
:101C3C00000000000000000000000000FFFF010099
:101C4C00000000F8FF0F0000000000000000000082
:101C5C0000000000000000000000000000FFFF0179
:101C6C0000000000F8FF0F00000000000000000062
:101C7C0000000000000000000000000000F0FFFF6A
:101C8C000100000000F0FF0F000000000000000049
:101C9C000000000000000000000000000000F0FF49
:101CAC00FF0000000000F0FF1F00F0FF01F83F00F4
:101CBC001E003EE003FF3FC0FF03F07F001EF0F864
:101CCC0000000000000000F0FF1F00F0FF01FC7F8F
:101CDC00001E007CF001FF3FC0FF03F8FF001EF068
:101CEC00F000000000000000E0FF1F00F0FF03FC0C
:101CFC007F001E007CF800FF3FC0FF03F8FF011EB1
:101D0C00F00000000000000000E0FF1F00F0C00326
:101D1C001CF0001E00F87800E001C001007CE0011E
:101D2C001EF00000000000000000E0FF1F00F0C0EB
:101D3C00031EF0001E00F07D00E001C001003CE03D
:101D4C00011EF00000000000000000E0FF1F00F08A
:101D5C00C0031EF0001E00E03F00E001C001003C8B
:101D6C00E0011EF00000000000000000E0FF1F007A
:101D7C00F0C0031EF0001E00E01F00E001C0FF01D8
:101D8C003C0000FEFF0000000000000000E0FF1F10
:101D9C0000F0FF031EF0001E00C01F00E001C0FF9A
:101DAC00013C0000FEFF0000000000000000E0FF0E
:101DBC001F00F0FF011EF0001E00800F00E001C0AC
:101DCC00FF013C0000FEFF0000000000000000E0EE
:101DDC00FF1F00F0FF001EF0001E00800700E00156
:101DEC00C001003CE0013EF00000000000000000DB
:101DFC00E0FF1F00F03F001EF0001E00800700E017
:101E0C0001C001003CE0011EF000000000000000D9
:101E1C0000E0FF1F00F000001EF0001E0080070015
:101E2C00E001C001003CE0011EF0000000000000D9
:101E3C000000E0FF1F00F000003CF8001E008007CF
:101E4C0000E001C001007CF0011EF0000000000069
:101E5C00000000E0FF1F00F00000FC7F00FE1F8070
:101E6C000700E001C0FF03F8FF011EF000000000B6
:101E7C0000000000F0FF1F00F00000FC7F00FE1FC0
:101E8C00800700E001E0FF03F0FF001EF000FFFF01
:101E9C000000000000F0FF1F00F00000F01F00FE2B
:101EAC000F800700E001C0FF03E07F001CF000FF83
:101EBC00FF0100000000F0FF0F0000000000000018
:101ECC000000000000000000000000000000000006
:101EDC00FFFF0100000000F8FF0F000000000000F1
:101EEC0000000000000000000000000000000000E6
:101EFC0000FFFF0300000000F8FF0F0000000000CF
:101F0C0000000000000000000000000000000000C5
:101F1C000000FFFF0300000000FCFF0F00000000AA
:101F2C0000000000000000000000000000000000A5
:101F3C00000000FFFF0700000000FEFF070000008C
:101F4C000000000000000000000000000000000085
:101F5C0000000000FFFF0700000000FEFF0700006C
:101F6C000000000000000000000000000000000065
:101F7C000000000000FFFF0F00000000FFFF030047
:101F8C000000000000000000000000000000000045
:101F9C00000000000000FFFF1F00000080FFFF0397
:101FAC0000F0C0833F3838FFE30FFE3180018C7F97
:101FBC00F8070000000000FFFF3F000000C0FFFF1B
:101FCC000100F0C0C37F7838FFF31FFF7180018ED2
:101FDC007FF80F0000000000FFFF7F000000E0FF13
:101FEC00FF0100F0E1E3607838387038067080014A
:101FFC008E03180E0000000000FFFFFF000000F031
:10200C00FFFF0000F0E163E0F838307038067080B4
:10201C00018E01180C0000000000FFFFFF03000000
:10202C00FCFFFF0000F06163E0D8393070380670B7
:10203C0080018E01180C0000000000FFFFFF0F0054
:10204C0000FEFF7F0000F07363E0D839307038FE7B
:10205C007180018E7F180C0000000000FFFFFF3F15
:10206C0000C0FFFF7F0000703363E0983B30F03F0F
:10207C00FE7180018E7FF80F0000000000FFFFFF53
:10208C00FF03FCFFFF3F0000703763E0983B30F02C
:10209C001F067080018E01F80F0000000000FFFF8A
:1020AC00FFFFFFFFFFFF1F0000703F63E0183F3092
:1020BC007000067080018E01180E0000000000FFF9
:1020CC00FFFFFFFFFFFFFF0F0000701EE3E0183E55
:1020DC00307000067080018E01180C0000000000AA
:1020EC00FFFFFFFFFFFFFFFF0F0000701EE37F18D5
:1020FC003E307000FFF18F7F8E7F180C00000000C7
:10210C0000FFFFFFFFFFFFFFFF070000701CC37FF6
:10211C00183C306000FEF18F7F8E7F180C000000A1
:10212C000000FFFFFFFFFFFFFFFF030000000000A8
:10213C00060000000000000000000000000000008D
:10214C00000000FFFFFFFFFFFFFFFF01000000008A
:10215C000000000000000000000000000000000073
:10216C0000000000FFFFFFFFFFFFFFFF000000006B
:10217C000000000000000000000000000000000053
:10218C000000000000FFFFFFFFFFFFFF3F0000000B
:10219C000000000000000000000000000000000033
:1021AC00000000000000FFFFFFFFFFFFFF1F00000B
:1021BC000000000000000000000000000000000013
:1021CC0000000000000000FF7FFFFFFFFFFF0F007B
:1021DC0000000000000000000000000000000000F3
:1021EC000000000000000000FE7FFCFFFFFFFF036B
:1021FC0000000000000000000000000000000000D3
:10220C00000000000000000000FE7FF0FFFFFFFF59
:10221C0000000000000000000000000000000000B2
:10222C0000000000000000000000FE7FC0FFFFFF68
:10223C003F00000000000000000000000000000053
:10224C000000000000000000000000FC7F00FFFF09
:10225C00FF0F000000000000000000000000000064
:10226C00000000000000000000000000FC7F00F8EF
:10227C00FFFF010000000000000000000000000053
:10228C0000000000000000000000000000F87F00CB
:10229C0000FE07000000000000000000000000002D
:1022AC000000000000000000000000000000F07FB3
:1022BC000000000000000000000000000000000012
:1022CC00000000000000000000000000000000E022
:1022DC007F00000000000000000000000000000073
:1022EC0000000000000000000000000000000000E2
:1022FC00C07F000000000000000000000000000093
:10230C0000000000000000000000000000000000C1
:10231C0000007E0000000000000000000000000033
:10232C0000000000000000000000000000000000A1
:10233C000000000000000000000000000000000091
:10234C000000000000000000000000000000000081
:10235C000000000000000000000000000000000071
:10298C000000000000000000000000000000001823
:10299C000300000000000018C00000000000000050
:1029AC0000000000000000000000000000181800EB
:1029BC00180300C06030000018C0001800000000B0
:1029CC0000000000000000000000000000001818CB
:1029DC0000180300C06030000018C0001800000090
:1029EC0000000000000000000000000000000018C3
:1029FC00180018030080F118000018C0001800001F
:102A0C0000000000000000000000000000000000BA
:102A1C0018187C18830780A1183C981BFC00180020
:102A2C00000000000000000000000000000000009A
:102A3C00001818FF18E31F80D118FFF81BFF0018AF
:102A4C00000000000000000000000000000000007A
:102A5C000000F81FC3196318009118C33818C3007D
:102A6C001800000000000000000000000000000042
:102A7C00000000F89F81193330809B89811998C11F
:102A8C000018000000000000000000000000000022
:102A9C00000000001898FF19333000938D811998AD
:102AAC00C100180000000000000000000000000041
:102ABC0000000000001898FF193330000B8D8119AD
:102ACC0098C1000800000000000000000000000099
:102ADC00000000000000189801187330000A8D8364
:102AEC001998C10000000000000000000000000068
:102AFC000000000000000018188319631C000E076A
:102B0C00E31898E300000000000000000000000043
:102B1C0000000000000000001818FF19E31F000E51
:102B2C0007FF1818FF00180000000000000000004C
:102B3C0000000000000000000018187C188307003B
:102B4C0006063C1818DE001800000000000000000B
:102B5C000000000000000000000000000000000069
:102B6C000000000000000000000000000000000059
:102B7C000000000000000000000000000000000049
:102B8C000000000000000000000000000000000039
:102F5C00007A030A000000000000000001020304D4
:042F6C000607080943
:0400000508000000EF
:00000001FF
