:020000040800F2
:10000000C81E0020FD0F00085D1000085D100008EC
:100010005D1000085D1000085D1000080000000081
:100020000000000000000000000000005D1000085B
:100030005D100008000000005D1000088D10000831
:100040005D1000085D1000085D1000085D100008DC
:100050005D1000085D1000085D1000085D100008CC
:100060005D1000085D1000085D1000085D100008BC
:100070005D1000085D1000085D1000085D100008AC
:100080005D1000085D1000085D1000085D1000089C
:100090005D1000085D1000085D1000085D1000088C
:1000A0005D1000085D1000085D1000085D1000087C
:1000B0005D1000085D1000085D1000085D1000086C
:1000C0005D1000085D1000085D1000085D1000085C
:1000D0005D1000085D1000085D1000085D1000084C
:1000E0005D1000085D1000085D1000085D1000083C
:1000F0005D1000085D1000085D1000085D1000082C
:100100005D1000085D1000085D1000085D1000081B
:100110005D1000085D1000085D1000085D1000080B
:100120005D1000085D1000085D1000085D100008FB
:100130005D1000085D1000085D1000085D100008EB
:100140005D1000085D1000085D1000085D100008DB
:100150005D1000085D1000085D1000085D100008CB
:100160005D1000085D1000085D1000085D100008BB
:100170005D1000085D1000085D1000085D100008AB
:100180005D1000085D10000880B500AF00F02CF88D
:1001900002E00A2000F09CFD00F062FE0346002B06
:1001A000F7D100F063F800F077F800F093F8034619
:1001B000002B03D10120012100F0DCFD00F0AAF8A2
:1001C00000F0C6F800F0E6F800F002F900F01EF9C1
:1001D00000F03AF900F056F900F072F90A2000F048
:1001E0009DFD00F08BF980BD80B582B000AF00238B
:1001F000FB71002000F0EEFD002000F0DBFD002090
:1002000000F0FAFD002000F009FE002000F018FECA
:10021000002000F093FE0346FB71002000F08EFEEC
:100220000346FB71052000F079FD012000F0C2FDBE
:100230000A2000F073FD012000F002FE012000F012
:10024000C9FD012000F0EAFD0A2000F067FD002052
:1002500000F0C0FD0A2000F061FD012000F0BAFDB1
:100260000A2000F05BFD0837BD4680BD80B582B036
:1002700000AF71233B7100237B713B1D18460221A7
:1002800000F08AFE3B1D1846022100F085FE034661
:1002900018460837BD4680BD80B582B000AF002348
:1002A000FB800B4A3B46106818603B46184602210B
:1002B00000F072FE0346FB803B46023318460221E3
:1002C00000F06AFE0346FB800837BD4680BD00BFD4
:1002D0006C16000880B582B000AF0023FB800C4A8A
:1002E0003B46106818603B461846022100F054FE59
:1002F0000346FB803B4602331846022100F04CFEC9
:100300000346DBB2DB09DBB218460837BD4680BDC9
:100310007016000880B582B000AF0023FB800B4A46
:100320003B46106818603B461846022100F034FE38
:100330000346FB803B4602331846042100F02CFEA6
:100340000346FB800837BD4680BD00BF7416000819
:1003500080B584B000AF0023FB810D4A3B46106896
:10036000516803C31189927A19809A703B461846E6
:10037000022100F011FE0346FB813B460233184682
:100380000B2100F009FE0346FB811037BD4680BDFE
:100390007816000880B582B000AF0023FB800B4ABE
:1003A0003B46106818603B461846022100F0F4FDF9
:1003B0000346FB803B4602331846042100F0ECFD67
:1003C0000346FB800837BD4680BD00BF8416000889
:1003D00080B582B000AF0023FB800B4A3B4610681B
:1003E00018603B461846022100F0D6FD0346FB800C
:1003F0003B4602331846022100F0CEFD0346FB8047
:100400000837BD4680BD00BF8816000880B582B0A1
:1004100000AF0023FB800B4A3B46106818603B4648
:100420001846022100F0B8FD0346FB803B4602332C
:100430001846022100F0B0FD0346FB800837BD4698
:1004400080BD00BF8C16000880B582B000AF0023CD
:10045000FB800B4A3B46106818603B461846022159
:1004600000F09AFD0346FB803B460233184602210A
:1004700000F092FD0346FB800837BD4680BD00BFFB
:100480009016000880B582B000AF0023FB800B4AB5
:100490003B46106818603B461846022100F07CFD80
:1004A0000346FB803B4602331846022100F074FDF0
:1004B0000346FB800837BD4680BD00BF9416000888
:1004C00080B582B000AF0023FB800B4A3B4610682A
:1004D00018603B461846022100F05EFD0346FB8093
:1004E0003B4602331846022100F056FD0346FB80CE
:1004F0000837BD4680BD00BF9816000880B584B09F
:1005000000AF0023FB730023BB81304A07F10803CF
:10051000106818602E4A3B1D106818602D4A3B4633
:10052000106818600023FB7342E007F108031846C7
:10053000022100F031FD0346BB8107F108030233BD
:100540001846022100F028FD0346BB81C82000F0B8
:10055000E5FB3B1D1846022100F01EFD0346BB8152
:100560003B1D02331846022100F016FD0346BB81F5
:10057000642000F0D3FB3B461846022100F00CFD3E
:100580000346BB813B4602331846022100F004FDBE
:100590000346BB81282000F0C1FB00F01DF8034694
:1005A000002B02D000F03CF805E0FB7B0133FB732D
:1005B000FB7B032BB9D9FB7B042B03D10120012149
:1005C00000F0D8FB1037BD4680BD00BF9C16000868
:1005D000A0160008A416000880B582B000AF002362
:1005E000FB800E4A3B46106818603B4618460221C5
:1005F00000F0D2FC0346FB803B4602331846022142
:1006000000F0CAFC034603F04003002B0CBF00239C
:100610000123DBB218460837BD4680BD70160008BE
:1006200080B582B000AF0023FB800B4A3B461068C8
:1006300018603B461846022100F0AEFC0346FB80E2
:100640003B4602331846022100F0A6FC0346FB801D
:100650000837BD4680BD00BFA816000880B582B02F
:1006600000AF0023FB800B4A3B46106818603B46F6
:100670001846022100F090FC0346FB803B46023303
:100680001846022100F088FC0346FB800837BD466F
:1006900080BD00BFAC16000880B582B000AF7860A6
:1006A000786800F009F8786800F024F8786800F0BD
:1006B00069F80837BD4680BD80B584B000AF78606A
:1006C0000023FB810023FB810DE0FA8913465B01C7
:1006D0001344DB007A6813441846002100F070F8D8
:1006E000FB890133FB81FB89AF2BEED91037BD4667
:1006F00080BD00BF80B584B000AF78600023FB816F
:1007000000237B7300233B7300237B7333E00023C0
:100710003B732AE00023FB810DE0FA8913465B015D
:100720001344DB007A6813441846022100F048F8AD
:10073000FB890133FB81FB89AF2BEED90023FB81C1
:100740000DE0FA8913465B011344DB007A68134419
:100750001846012100F034F8FB890133FB81FB8945
:10076000AF2BEED93B7B01333B733B7B042BD1D9C1
:100770007B7B01337B737B7B042BC8D91037BD4651
:1007800080BD00BF80B584B000AF78600023FB81DE
:100790000023FB810DE0FA8913465B011344DB0063
:1007A0007A6813441846032100F00AF8FB890133E4
:1007B000FB81FB89AF2BEED91037BD4680BD00BF52
:1007C00080B5BEB000AF78600B46FB70002387F8A1
:1007D000F73007F1C80300221A60043300221A60C0
:1007E000043300221A60043300221A60043300220A
:1007F0001A60043300221A60043300221A600433A2
:1008000000221A60043300221A60043300221A60A6
:10081000043300221A60043307F1A40300221A6093
:10082000043300221A60043300221A6004330022C9
:100830001A60043300221A60043300221A60043361
:1008400000221A60043300221A60043300221A7056
:10085000013307F1800300221A60043300221A607A
:10086000043300221A60043300221A600433002289
:100870001A60043300221A60043300221A60043321
:1008800000221A60043300221A700133212387F8F2
:10089000F73027E1002387F8F63097F8F730C3F1F7
:1008A000210397F8F72079680A44127822F055025C
:1008B000D2B207F1F8010B4403F8542C97F8F73043
:1008C000C3F1210397F8F720C2F1210207F1F801E3
:1008D0000A4412F8542C5208D2B207F1F8010B4422
:1008E00003F8542C97F8F730C3F1210397F8F72059
:1008F000C2F1210207F1F8010A4412F8542C62F007
:100900005502D2B207F1F8010B4403F8542C97F8C2
:10091000F730013B97F8F72079680A44127802F023
:100920005502D2B207F1F8010B4403F8782C97F87E
:10093000F730013B97F8F720013A07F1F8010A4434
:1009400012F8782C62F05502D2B207F1F8010B448C
:1009500003F8782CFB78012B00F09880022B2BD029
:10096000002B00D0B9E097F8F730C3F1210397F8D6
:10097000F720C2F1210207F1F8010A4412F8542CC1
:1009800082F05502D2B207F1F8010B4403F8542C5F
:1009900097F8F730013B97F8F720013A07F1F80193
:1009A0000A4412F8782C82F05502D2B207F1F8010D
:1009B0000B4403F8782C90E097F8F730C3F121034B
:1009C00007F1F802134413F8543C23F0550387F859
:1009D000F63097F8F730C3F1210397F8F720C2F10A
:1009E000210207F1F8010A4412F8542C5200D2B245
:1009F00007F1F8010B4403F8542C97F8F730C3F1D2
:100A0000210397F8F720C2F1210207F1F8010A4407
:100A100012F8541C97F8F6200A43D2B207F1F801F5
:100A20000B4403F8542C97F8F730013B07F1F80218
:100A3000134413F8783C23F0550387F8F63097F801
:100A4000F730013B97F8F720013A07F1F8010A4423
:100A500012F8782C5200D2B207F1F8010B4403F8D7
:100A6000782C97F8F730013B97F8F720013A07F117
:100A7000F8010A4412F8781C97F8F6200A43D2B21B
:100A800007F1F8010B4403F8782C26E097F8F730CB
:100A9000C3F1210397F8F720C2F1210207F1F80111
:100AA0000A4412F8542CD243D2B207F1F8010B4495
:100AB00003F8542C97F8F730013B97F8F720013AE8
:100AC00007F1F8010A4412F8782CD243D2B207F1A8
:100AD000F8010B4403F8782C00BF97F8F730013B7E
:100AE00087F8F73097F8F730002B7FF4D3AE07F193
:100AF00010027023104600211A4600F06DFD72238B
:100B00007B74002387F8F73013E097F8F73002334F
:100B100097F8F72007F1F8010A4412F8542C07F16E
:100B2000F8010B4403F8E82C97F8F730013387F805
:100B3000F73097F8F730202BE7D9002387F8F73004
:100B400013E097F8F730233397F8F72007F1F8010F
:100B50000A4412F8302C07F1F8010B4403F8E82C92
:100B600097F8F730013387F8F73097F8F7302B2BE9
:100B7000E7D9002387F8F73013E097F8F7304F33C1
:100B800097F8F72007F1F8010A4412F8782C07F1DA
:100B9000F8010B4403F8E82C97F8F730013387F895
:100BA000F73097F8F730202BE7D90F4A07F10C03FD
:100BB00012881A80002387F8F53007F10C031846D5
:100BC000022100F0E9F9034687F8F53007F1100338
:100BD0001846702100F0E0F9034687F8F530FFF77A
:100BE0003DFDF837BD4680BDB016000880B483B027
:100BF00000AF03463960FB7197F90730002B0BDA21
:100C00000D49FB7903F00F03043B3A68D2B212019D
:100C1000D2B20B441A7609E0084997F907303A68CE
:100C2000D2B21201D2B20B4483F800230C37BD4676
:100C30005DF8047B704700BF00ED00E000E100E0DC
:100C400080B582B000AF78607B68B3F1807F01D35C
:100C5000012311E00A4B7A6822F07F42013A5A6080
:100C60004FF0FF300F21FFF7C1FF054B00229A60C4
:100C7000034B07221A60002318460837BD4680BD83
:100C800010E000E080B500AF00BF064B1A68064BCD
:100C9000A3FB02139B0C1846FFF7D2FF0346002B61
:100CA000F3D180BDB016002083DE1B4380B400AFBB
:100CB000064B1B68002B04D0044B1B685A1E034BC9
:100CC0001A60BD465DF8047B704700BFC416002063
:100CD00080B483B000AF7860064B7A681A6000BFBA
:100CE000044B1B68002BFBD10C37BD465DF8047B21
:100CF000704700BFC416002080B400AF064B4FF40D
:100D00007A721A6000BF044B1B68002BFBD1BD46F2
:100D10005DF8047B704700BFC416002080B582B028
:100D200000AF786001E0FFF7E7FF7B685A1E7A604A
:100D3000002BF8D10837BD4680BD00BF80B582B01A
:100D400000AF0420012100F0A7F94FF460533B608D
:100D50000023BB7101233B710023FB7102237B71D4
:100D60003B460348194600F0D3F90837BD4680BD1D
:100D70000008024080B584B000AF02460B46FA710D
:100D8000BB71FB790C33012202FA03F3FB81BB79BF
:100D9000012B05D1FB890648194600F061FA04E0F1
:100DA000FB890348194600F069FA1037BD4680BD3B
:100DB0000008024080B582B000AF0346FB71FB79AA
:100DC000034802211A4600F067FA0837BD4680BD85
:100DD0000004024080B582B000AF0346FB71FB798E
:100DE00004484FF400611A4600F056FA0837BD4631
:100DF00080BD00BF0008024080B582B000AF03464E
:100E0000FB71FB7904484FF480611A4600F044FA04
:100E10000837BD4680BD00BF0008024080B582B0E3
:100E200000AF0346FB71FB7904484FF480411A463A
:100E300000F032FA0837BD4680BD00BF0004024012
:100E400080B582B000AF0346FB71FB7903481021E7
:100E50001A4600F021FA0837BD4680BD0000024066
:100E600080B500AF03484FF4005100F0DFF90346AE
:100E7000184680BD0004024080B588B000AF012054
:100E8000012100F009F9E023BB610023BB770223B5
:100E90003B770023FB7702237B7707F11803254874
:100EA000194600F035F923480521052200F00CFA17
:100EB00020480621052200F007FA1E4807210522D6
:100EC00000F002FA1023BB610023BB7701233B77BC
:100ED0000123FB7702237B7707F118031548194696
:100EE00000F016F91348102100F0BAF94FF48050C1
:100EF000012100F0EFF820233B820023BB81002377
:100F00007B8100233B810023BB8000237B824FF445
:100F10008273FB804FF44073FB813B1D06481946EA
:100F200000F0BEFA0448012100F0FEFA2037BD4669
:100F300080BD00BF000002400030014080B582B09B
:100F400000AF0346FB71FB799BB21248194600F0D3
:100F500019FB00BF0F48022100F022FB0346002BC3
:100F6000F8D000BF0B48012100F01AFB0346002B0C
:100F7000F8D000BF0748802100F012FB0346002B89
:100F8000F8D1044800F0F0FA0346DBB218460837FF
:100F9000BD4680BD0030014080B584B000AF7860B0
:100FA0000B467B800023FB730023BB810020FFF7EF
:100FB00047FF0023BB8115E07B685A1C7A601B78D1
:100FC0001846FFF7BBFF0346FB73BB89032B06D80C
:100FD000BB8907F110021344FA7B03F8082CBB8984
:100FE0000133BB81BA897B889A42E5D30120FFF7A0
:100FF00027FFFB7B18461037BD4680BD80B582B009
:1010000000AF114B7B60114B3B6007E03B681A1D42
:101010003A607A68111D796012681A603A680C4B60
:101020009A42F3D30B480C494FF000028842B8BFF4
:1010300040F8042BFFF6FAAF00F08CF900F012F83C
:101040000837BD4680BD00BFB41600080000002070
:10105000C4160020C4160020C816002080B400AFBB
:10106000FEE700BF80B500AFFFF70CFEFFF766FE9E
:10107000FFF702FFFFF788F80348FFF70DFB4FF477
:10108000FA60FFF74BFEF7E70000002080B500AFE5
:10109000FFF70CFE80BD00BF80B483B000AF786066
:1010A0000B46FB70FB78002B06D0094B084A116BEE
:1010B0007A680A431A6306E0054B054A116B7A68A1
:1010C000D2430A401A630C37BD465DF8047B704773
:1010D0000038024080B483B000AF78600B46FB70EC
:1010E000FB78002B06D0094B084A516C7A680A43FA
:1010F0005A6406E0054B054A516C7A68D2430A40AF
:101100005A640C37BD465DF8047B704700380240D6
:1011100080B487B000AF7860396000237B61002322
:101120003B610023FB6000237B6176E07B69012249
:1011300002FA03F33B613B681A683B691340FB60AA
:10114000FA683B699A4265D17B681A687B695B00E3
:10115000032101FA03F3DB431A407B681A607B68C2
:101160001A683B681B7919467B695B0001FA03F337
:101170001A437B681A603B681B79012B03D03B68DC
:101180001B79022B2ED17B689A687B695B00032157
:1011900001FA03F3DB431A407B689A607B689A6824
:1011A0003B685B7919467B695B0001FA03F31A43DC
:1011B0007B689A607B685A687B699BB2012101FA5F
:1011C00003F3DB431A407B685A607B685A683B68CC
:1011D0009B7919467B699BB201FA03F39BB21A43D0
:1011E0007B685A607B68DA687B699BB25B0003218D
:1011F00001FA03F3DB431A407B68DA607B68DA6844
:101200003B68DB7919467B695B0001FA03F31A43FB
:101210007B68DA607B6901337B617B690F2B85D941
:101220001C37BD465DF8047B704700BF80B485B0B5
:1012300000AF78600B467B800023FB737B681A69E4
:101240007B881340002B02D00123FB7301E00023B5
:10125000FB73FB7B18461437BD465DF8047B704773
:1012600080B483B000AF78600B467B807B687A885F
:101270001A830C37BD465DF8047B704780B483B099
:1012800000AF78600B467B807B687A885A830C3786
:10129000BD465DF8047B704780B483B000AF7860D2
:1012A00013460A467A807B707B78002B03D07B68DC
:1012B0007A881A8302E07B687A885A830C37BD46A5
:1012C0005DF8047B704700BF80B485B000AF7860E4
:1012D00013460A467A807B700023FB600023BB60C4
:1012E0007A787B8803F007039B0002FA03F3FB6024
:1012F0007B88DB089BB21A467B88DB089BB21946C9
:101300007B68083153F821107B8803F007039B00AA
:101310000F2000FA03F3DB4319407B68083243F8DF
:1013200022107B88DB089BB21A467B68083253F890
:101330002220FB681343BB607B88DB089BB21A4604
:101340007B680832B96843F822101437BD465DF84F
:10135000047B704780B500AF114B114A126842F010
:1013600001021A600E4B00229A600D4A0C4B1B685A
:1013700023F0847323F480331360094B094A5A60C5
:10138000074B074A126822F480221A60044B00229D
:10139000DA6000F00BF8044B4FF000629A6080BDF9
:1013A000003802401030002400ED00E080B483B02B
:1013B00000AF00237B6000233B60354B344A12684A
:1013C00042F480321A60324B1B6803F400333B60F6
:1013D0007B6801337B603B68002B03D17B68B3F5EE
:1013E000A06FF0D12A4B1B6803F40033002B02D00E
:1013F00001233B6001E000233B603B68012B42D1AD
:10140000234B234A126C42F080521A64214B214A2A
:10141000126842F480421A601D4B1D4A92689A601D
:101420001B4B1B4A926842F400429A60184B184AC0
:10143000926842F4A0529A60154B174A5A60144BB6
:10144000134A126842F080721A6000BF104B1B688A
:1014500003F00073002BF9D0104B40F205621A60C4
:101460000B4B0B4A926822F003029A60084B084A21
:10147000926842F002029A6000BF054B9B6803F03D
:101480000C03082BF9D10C37BD465DF8047B70477F
:10149000003802400070004010544007003C0240F9
:1014A00080B485B000AF786039600023FB817B6831
:1014B0001B88FB81FB8903F44153FB813B681A883D
:1014C0003B685B8813439AB23B689B8813439AB28C
:1014D0003B68DB8813439AB23B681B8913439AB27B
:1014E0003B685B8913439AB23B689B8913439AB26A
:1014F0003B68DB8913439AB2FB891343FB817B680A
:10150000FA891A807B689B8B9BB223F400639AB2A2
:101510007B689A833B681A8A7B681A821437BD46B7
:101520005DF8047B704700BF80B483B000AF786083
:101530000B46FB70FB78002B08D07B681B889BB2A6
:1015400043F040039AB27B681A8007E07B681B88EF
:101550009BB223F040039AB27B681A800C37BD46D9
:101560005DF8047B704700BF80B483B000AF786043
:101570007B689B899BB218460C37BD465DF8047B9F
:10158000704700BF80B483B000AF78600B467B80AB
:101590007B687A889A810C37BD465DF8047B70477A
:1015A00080B485B000AF78600B467B800023FB736E
:1015B0007B681B899AB27B8813409BB2002B02D0B8
:1015C0000123FB7301E00023FB73FB7B18461437F8
:1015D000BD465DF8047B7047F0B4840743D0541EC9
:1015E000002A3ED0CDB2034603E0621E002C38D064
:1015F000144603F8015B9A07F7D1032C2AD9CDB220
:1016000045EA05250F2C45EA054515D9A4F1100733
:101610003F0903F1100606EB07161A4615605560E0
:101620009560D5601032B242F8D104F00F04013752
:10163000032C03EB07130DD91E462246043A032A56
:1016400046F8045BFAD8221F22F003020432134446
:1016500004F003042CB1C9B21C4403F8011BA342DB
:10166000FBD1F0BC704714460346C6E770027240D7
:10167000700F7300700B72027001720000007FFF28
:10168000FE000000700772D170087202700972C209
:1016900070047203700372017003720070057201AE
:1016A000700572037005720F700272067002720785
:0416B000700A0000BC
:1016B400FFFFFFFFFFFFFFFFFFFFFFFFFFFFFFFF36
:1016C400FFFFFFFFFFFFFFFFFFFFFFFFFFFFFFFF26
:1016D400FFFFFFFFFFFFFFFFFFFFFFFFFFFFFFFF16
:1016E400FFFFFFFFFFFFFFFFFFFFFFFFFFFFFFFF06
:102D6400007A030A000000000000000001020304CE
:042D7400060708093D
:0400000508000000EF
:00000001FF
