:020000040800F2
:10000000981800207D110008D9110008D9110008A6
:10001000D9110008D9110008D9110008000000000A
:10002000000000000000000000000000D9110008DE
:10003000D911000800000000D9110008351200088D
:10004000D9110008D9110008D9110008D9110008E8
:10005000D9110008D9110008D9110008D9110008D8
:10006000D9110008D9110008D9110008D9110008C8
:10007000D9110008D9110008D9110008D9110008B8
:10008000D9110008D9110008D9110008D9110008A8
:10009000D9110008D9110008D9110008D911000898
:1000A000D9110008D9110008D9110008D911000888
:1000B000D9110008D9110008D9110008D911000878
:1000C000D9110008D9110008D9110008D911000868
:1000D000D9110008D9110008D9110008D911000858
:1000E000D9110008D9110008D9110008D911000848
:1000F000D9110008D9110008D9110008D911000838
:10010000D9110008D9110008D9110008D911000827
:10011000D9110008D9110008D9110008D911000817
:10012000D9110008D9110008D9110008D911000807
:10013000D9110008D9110008D9110008D9110008F7
:10014000D9110008D9110008D9110008D9110008E7
:10015000D9110008D9110008D9110008D9110008D7
:10016000D9110008D9110008D9110008D9110008C7
:10017000D9110008D9110008D9110008D9110008B7
:10018000D9110008D911000880B500AF00F026F899
:1001900002E00A2000F04EFE00F02CFF0346002B88
:1001A000F7D100F0A3F800F0B9F800F0D5F800F0AE
:1001B000F3F800F00FF9D12000F02EF900F050F91B
:1001C00000F06CF900F088F900F0C2F900F0DEF9F7
:1001D0000A2000F055FE00F0F7F980BD80B582B02E
:1001E00000AF0023FB71002000F0BEFE002000F0F5
:1001F000ABFE002000F0CAFE002000F0D9FE002077
:1002000000F0E8FE002000F063FF0346FB710020D1
:1002100000F05EFF0346FB71052000F031FE012077
:1002200000F092FE0A2000F02BFE012000F0D2FE2A
:10023000012000F099FE012000F0BAFE0A2000F033
:100240001FFE002000F090FE0A2000F019FE0120A1
:1002500000F08AFE0A2000F013FE0837BD4680BD7C
:1002600080B582B000AF00237B6000F00DFB7868A2
:100270000021042200F0DAFB142000F001FEC82067
:1002800000F054FD00F046F900F062F9032000F0A0
:10029000C9F9012000F0C6F94FF4AF7000F0F0FD8D
:1002A00000F044FA002000F0BDF9012000F0B4F89D
:1002B0004B2000F0E5FD002000F07AFE002000F069
:1002C00043FE142000F0DCFD002000F04DFE002075
:1002D00000F080FE012000F059FEC82000F0D0FDA3
:1002E000012000F053FE0837BD4680BD80B582B0C6
:1002F00000AF71233B7100237B713B1D1846022127
:1003000000F014FF3B1D1846022100F00FFF0346CA
:100310009BB218460837BD4680BD00BF80B582B08D
:1003200000AF0023FB800B4A3B46106818603B4639
:100330001846022100F0FAFE0346FB803B460233DA
:100340001846022100F0F2FE0346FB800837BD4646
:1003500080BD00BF4419000880B582B000AF002303
:10036000FB800C4A3B46106818603B461846022149
:1003700000F0DCFE0346FB803B46023318460221B8
:1003800000F0D4FE0346DBB2DB09DBB218460837C7
:10039000BD4680BD4819000880B582B000AF00237B
:1003A000FB800B4A3B46106818603B46184602210A
:1003B00000F0BCFE0346FB803B4602331846042196
:1003C00000F0B4FE0346FB800837BD4680BD00BF89
:1003D0004C19000880B584B000AF0023FB810D4AA2
:1003E0003B461068516803C31189927A19809A704C
:1003F0003B461846022100F099FE0346FB813B462E
:10040000023318460B2100F091FE0346FB811037A2
:10041000BD4680BD5019000880B584B000AF0346CA
:10042000FB710023FB8170233B7207237B727223D5
:10043000BB72FB79FB7207F108031846022100F03A
:1004400075FE0346FB8107F10803023318460421B9
:1004500000F06CFE0346FB811037BD4680BD00BF37
:1004600080B582B000AF0023FB800B4A3B4610688A
:1004700018603B461846022100F058FE0346FB80F8
:100480003B4602331846022100F050FE0346FB8033
:100490000837BD4680BD00BF5C19000880B582B03A
:1004A00000AF0023FB800B4A3B46106818603B46B8
:1004B0001846022100F03AFE0346FB803B46023319
:1004C0001846022100F032FE0346FB800837BD4685
:1004D00080BD00BF6019000880B582B000AF002366
:1004E000FB800B4A3B46106818603B4618460221C9
:1004F00000F01CFE0346FB803B46023318460221F7
:1005000000F014FE0346FB800837BD4680BD00BFE7
:100510006419000880B582B000AF0023FB800B4A4D
:100520003B46106818603B461846022100F0FEFD6D
:100530000346FB803B4602331846022100F0F6FDDD
:100540000346FB800837BD4680BD00BF6819000820
:1005500080B582B000AF0023FB800B4A3B46106899
:1005600018603B461846022100F0E0FD0346FB8080
:100570003B4602331846022100F0D8FD0346FB80BB
:100580000837BD4680BD00BF6C19000880B582B039
:1005900000AF0023FB800B4A3B46106818603B46C7
:1005A0001846022100F0C2FD0346FB803B460233A1
:1005B0001846022100F0BAFD0346FB800837BD460D
:1005C00080BD00BF7019000880B582B000AF002365
:1005D000FB710023BB800023FB711CE0012000F0B5
:1005E00021F8C82000F04CFC032000F01BF8642028
:1005F00000F046FC0F2000F015F8282000F040FC29
:1006000000F034F80346002B02D000F053F805E068
:10061000FB790133FB71FB79032BDFD90837BD462A
:1006200080BD00BF80B584B000AF0346FB710023DE
:10063000FB8170233B7205237B727223BB72FB79B3
:10064000FB7207F108031846022100F06FFD034614
:10065000FB8107F1080302331846022100F066FD12
:100660000346FB811037BD4680BD00BF80B582B018
:1006700000AF0023FB800E4A3B46106818603B46E3
:100680001846022100F052FD0346FB803B46023330
:100690001846022100F04AFD034603F04003002BF8
:1006A00014BF01230023DBB218460837BD4680BDC6
:1006B0004819000880B582B000AF0023FB800B4AC8
:1006C0003B46106818603B461846022100F02EFD9C
:1006D0000346FB803B4602331846022100F026FD0C
:1006E0000346FB800837BD4680BD00BF7419000873
:1006F00080B582B000AF0023FB800B4A3B461068F8
:1007000018603B461846022100F010FD0346FB80AE
:100710003B4602331846022100F008FD0346FB80E9
:100720000837BD4680BD00BF7819000880B582B08B
:1007300000AF0023FB800B4A3B46106818603B4625
:100740001846022100F0F2FC0346FB803B460233D0
:100750001846022100F0EAFC0346FB800837BD463C
:1007600080BD00BF7C19000880B582B000AF786002
:10077000786800F049F8786800F00AF8786800F0C6
:1007800063F8322000F0D2FA0837BD4680BD00BFC2
:1007900080B584B000AF78600023FB730023BB7387
:1007A00000237B730023BB7327E000237B731EE0D1
:1007B0000023FB7307E0FB7B1846022100F07AF868
:1007C000FB7B0133FB73FB7BAF2BF4D90023FB7363
:1007D00007E0FB7B1846012100F06CF8FB7B01333E
:1007E000FB73FB7BAF2BF4D97B7B01337B737B7B70
:1007F000012BDDD9BB7B0133BB73BB7B012BD4D970
:100800001037BD4680BD00BF80B584B000AF7860B2
:100810000023FB810023FB8110E0FA8913465B0172
:1008200013441A467B681A44FB89DBB2104619460A
:10083000002200F0FBF8FB890133FB81FB89AF2B21
:10084000EBD91037BD4680BD80B584B000AF78606D
:100850000023FB810023FB8110E0FA8913465B0132
:1008600013441A467B681A44FB89DBB210461946CA
:10087000032200F0DBF8FB890133FB81FB89AF2BFE
:10088000EBD91037BD4680BD80B582B000AF0023E4
:10089000FB7100233B600023FB7104E000F09AF839
:1008A000FB790133FB71FB79AF2BF7D90837BD46D4
:1008B00080BD00BF80B5A0B000AF03460A46FB7103
:1008C0001346BB7107F10C0370221846002100F09B
:1008D0006BFF72233B7300237B73002387F87F3009
:1008E000002387F87F303AE0BB79012B1AD0022B26
:1008F00000D02FE097F87F309A1C97F87F304F3365
:1009000007F180011944FF2001F8740C07F1800100
:100910000B4413F8741C07F1800313440A4603F8D0
:10092000742C17E097F87F309A1C97F87F304F337C
:1009300007F180011944AA2001F8740C07F1800125
:100940000B4413F8741C07F1800313440A4603F8A0
:10095000742C00BF97F87F30013387F87F3097F809
:100960007F30202BC0D9FB799B08DBB2C3F14E034B
:1009700087F87E3097F87E30FA7902F00302520051
:10098000032101FA02F2D2B207F180010B4403F80D
:10099000742C0F4A07F1080312881A80002387F885
:1009A0007D3007F108031846022100F0BFFB034623
:1009B00087F87D3007F10C031846702100F0B6FB74
:1009C000034687F87D30FFF793FE8037BD4680BD34
:1009D0008019000880B59EB000AF002387F87730FB
:1009E000114A07F1740312881A8007F1740318463C
:1009F000022100F09BFB034687F877303B1D7022F5
:100A00001846002100F0D0FE72233B713B1D1846B2
:100A1000702100F08BFB034687F87730FFF768FE04
:100A20007837BD4680BD00BF8019000880B5BEB0D4
:100A300000AF78600B46FB701346BB70002387F84D
:100A4000F73007F1C80300221A60043300221A604D
:100A5000043300221A60043300221A600433002297
:100A60001A60043300221A60043300221A6004332F
:100A700000221A60043300221A60043300221A6034
:100A8000043300221A600433FB789B08DBB2C3F105
:100A90002B03FA7802F003025200032101FA02F25A
:100AA000D2B207F1F8010B4403F8302C07F1A4038C
:100AB00000221A60043300221A60043300221A60F4
:100AC000043300221A60043300221A600433002227
:100AD0001A60043300221A60043300221A600433BF
:100AE00000221A70013307F1800300221A600433D8
:100AF00000221A60043300221A60043300221A60B4
:100B0000043300221A60043300221A6004330022E6
:100B10001A60043300221A60043300221A70013371
:100B2000BB78042B00F08C80002387F8F73082E03C
:100B300097F8F730C3F1200387F8F63097F8F630CE
:100B400097F8F72079680A44127822F05502D2B259
:100B500007F1F8010B4403F8542C97F8F63097F896
:100B6000F62007F1F8010A4412F8542C11466D4A98
:100B7000525C07F1F8010B4403F8542C97F8F63057
:100B800097F8F62007F1F8010A4412F8542C62F0A5
:100B90005502D2B207F1F8010B4403F8542C97F830
:100BA000F73097F8F72079680A44127802F0550276
:100BB000D2B207F1F8010B4403F8782C97F8F7301C
:100BC00097F8F72007F1F8010A4412F8782C62F040
:100BD0005502D2B207F1F8010B4403F8782CBB7828
:100BE000002B00D022E097F8F63097F8F62007F1B6
:100BF000F8010A4412F8542C82F05502D2B207F1DF
:100C0000F8010B4403F8542C97F8F73097F8F720C5
:100C100007F1F8010A4412F8782C82F05502D2B29A
:100C200007F1F8010B4403F8782C00BF97F8F73070
:100C3000013387F8F73097F8F730202B7FF678AF3D
:100C400007F1100370221846002100F0ADFD722359
:100C50003B7400237B74002387F8F73022E097F879
:100C6000F730023397F8F72007F1F8010A4412F839
:100C7000542C07F1F8010B4403F8E82C97F8F730EF
:100C80004F3397F8F72007F1F8010A4412F8782C4F
:100C900007F1F8010B4403F8E82C97F8F73001331B
:100CA00087F8F73097F8F730202BD8D9002387F84A
:100CB000F73013E097F8F730233397F8F72007F170
:100CC000F8010A4412F8302C07F1F8010B4403F83C
:100CD000E82C97F8F730013387F8F73097F8F730BA
:100CE0002B2BE7D9104A07F10C0312881A80002336
:100CF00087F8F53007F10C031846022100F016FAC8
:100D0000034687F8F53007F110031846702100F00C
:100D10000DFA034687F8F530FFF7EAFCF837BD46D1
:100D200080BD00BF441800088019000880B582B05B
:100D300000AF0346FB71002000F03AF9FB7918463A
:100D400000F09EF8012000F033F90837BD4680BD61
:100D500080B483B000AF03463960FB7197F9073068
:100D6000002B0BDA0D49FB7903F00F03043B3A68C3
:100D7000D2B21201D2B20B441A7609E0084997F9AF
:100D800007303A68D2B21201D2B20B4483F8002382
:100D90000C37BD465DF8047B704700BF00ED00E0F6
:100DA00000E100E080B582B000AF78607B68B3F10D
:100DB000807F01D3012311E00A4A7B6823F07F433F
:100DC000013B53604FF0FF300F21FFF7C1FF054B90
:100DD00000229A60034B07221A6000231846083746
:100DE000BD4680BD10E000E080B500AF00BF064BFF
:100DF0001B68064AA2FB03239B0C1846FFF7D2FF91
:100E00000346002BF3D180BD0000002083DE1B438E
:100E100080B400AF064B1B68002B04D0044B1B684A
:100E2000013B034A1360BD465DF8047B704700BF79
:100E30001400002080B483B000AF7860064A7B685D
:100E4000136000BF044B1B68002BFBD10C37BD4661
:100E50005DF8047B704700BF1400002080B400AF31
:100E6000064B4FF47A721A6000BF044B1B68002BCC
:100E7000FBD1BD465DF8047B704700BF1400002025
:100E800080B582B000AF786001E0FFF7E7FF7B68D4
:100E90005A1E7A60002BF8D10837BD4680BD00BFCE
:100EA00080B582B000AF0420012100F0C9F94FF4F1
:100EB00060533B600023BB7101233B710023FB7136
:100EC00002237B713B460348194600F0F5F90837C9
:100ED000BD4680BD0008024080B584B000AF034627
:100EE000FB71FB790C33012202FA03F3FB81FB89CE
:100EF0000348194600F0BCFA1037BD4680BD00BF5C
:100F00000008024080B584B000AF03460A46FB717A
:100F10001346BB71FB790C33012202FA03F3FB8108
:100F2000BB79012B05D1FB890648194600F06CFA04
:100F300004E0FB890348194600F074FA1037BD46F7
:100F400080BD00BF0008024080B582B000AF0346FC
:100F5000FB71FB79034802211A4600F071FA083749
:100F6000BD4680BD0004024080B582B000AF03469C
:100F7000FB71FB7904484FF400611A4600F060FAF7
:100F80000837BD4680BD00BF0008024080B582B072
:100F900000AF0346FB71FB7904484FF480611A46A9
:100FA00000F04EFA0837BD4680BD00BF0008024081
:100FB00080B582B000AF0346FB71FB7904484FF463
:100FC00080411A4600F03CFA0837BD4680BD00BF9C
:100FD0000004024080B582B000AF0346FB71FB798C
:100FE000034810211A4600F02BFA0837BD4680BD91
:100FF0000000024080B500AF03484FF4005100F0FC
:10100000E9F90346184680BD0004024080B588B067
:1010100000AF0120012100F013F9E023BB610023A0
:10102000BB7702233B770023FB7702237B7707F113
:1010300018032548194600F03FF9234805210522E9
:1010400000F028FA20480621052200F023FA1E4865
:101050000721052200F01EFA1023BB610023BB7795
:1010600001233B770123FB7702237B7707F11803EA
:101070001548194600F020F91348102100F0C4F972
:101080004FF48050012100F0F9F828233B8200231F
:10109000BB8100237B8100233B810023BB80002395
:1010A0007B824FF48273FB804FF44073FB813B1DC6
:1010B0000648194600F0DCFA0448012100F01CFB48
:1010C0002037BD4680BD00BF000002400030014017
:1010D00080B582B000AF0346FB71FB799BB212482A
:1010E000194600F037FB00BF0F48022100F040FB1B
:1010F0000346002BF8D000BF0B48012100F038FB5D
:101100000346002BF8D000BF0748802100F030FBD9
:101110000346002BF8D1044800F00EFB0346DBB277
:1011200018460837BD4680BD0030014080B584B008
:1011300000AF78600B467B800023FB730023BB81EC
:101140000020FFF747FF0023BB810BE07B685A1CA0
:101150007A601B781846FFF7BBFF0346FB73BB8919
:101160000133BB81BA897B889A42EFD30120FFF714
:1011700031FFFB7B18461037BD4680BD80B582B07D
:1011800000AF104B7B60104B3B6007E03B681A1DC3
:101190003A607A68111D796012681A603B680B4AE0
:1011A0009342F3D30A480B494FF000028842B8BF7C
:1011B00040F8042BFADB00F0B5F900F011F808371D
:1011C000BD4680BD841900080000002014000020E6
:1011D000140000209810002080B400AFFEE700BF8C
:1011E00080B500AFFFF700FEFFF75AFE0020012197
:1011F000FFF788FEFFF70AFFFEF7C6FF0020002179
:10120000FFF780FE01200121FFF77CFE0848FFF771
:10121000ABFAFFF725F801200021FFF773FE00204D
:10122000FFF75AFE4FF4FA70FFF72AFEF7E700BF08
:101230001800002080B500AFFFF7EAFD80BD00BFB9
:1012400080B483B000AF78600B46FB70FB78002B56
:1012500006D00949084B1A6B7B6813430B6306E001
:101260000549054B1A6B7B68DB4313400B630C3756
:10127000BD465DF8047B70470038024080B483B0FF
:1012800000AF78600B46FB70FB78002B06D0094955
:10129000084B5A6C7B6813434B6406E00549054BC9
:1012A0005A6C7B68DB4313404B640C37BD465DF8DA
:1012B000047B70470038024080B487B000AF78608C
:1012C000396000237B6100233B610023FB60002326
:1012D0007B6176E07B69012202FA03F33B613B68A4
:1012E0001A683B691340FB60FA683B699A4265D112
:1012F0007B681A687B695B00194603238B40DB43DC
:101300001A407B681A607B681A683B681B7919462B
:101310007B695B0001FA03F31A437B681A603B6840
:101320001B79012B03D03B681B79022B2ED17B68E4
:101330009A687B695B00194603238B40DB431A40A4
:101340007B689A607B689A683B685B7919467B6921
:101350005B0001FA03F31A437B689A607B685A6862
:101360007B699BB2194601238B40DB431A407B68A3
:101370005A607B685B683A68927911467A6992B2E2
:1013800001FA02F292B21A437B685A607B68DA680B
:101390007B699BB25B00032101FA03F3DB431A4034
:1013A0007B68DA607B68DA683B68DB7919467B69C1
:1013B0005B0001FA03F31A437B68DA607B6901334F
:1013C0007B617B690F2B85D91C37BD465DF8047B9B
:1013D000704700BF80B485B000AF78600B467B805B
:1013E0000023FB737B681A697B881340002B02D0B3
:1013F0000123FB7301E00023FB73FB7B18461437CA
:10140000BD465DF8047B704780B483B000AF786060
:101410000B467B807B687A881A830C37BD465DF863
:10142000047B704780B483B000AF78600B467B804C
:101430007B687A885A830C37BD465DF8047B704719
:1014400080B483B000AF78600B467B8013467B701E
:101450007B78002B03D07B687A881A8302E07B6854
:101460007A885A830C37BD465DF8047B704700BF0D
:1014700080B483B000AF78600B467B807B685A698C
:101480007B885A407B685A610C37BD465DF8047B07
:10149000704700BF80B485B000AF78600B467B809A
:1014A00013467B700023FB600023BB607B787A8847
:1014B00002F0070292009340FB607B88DB089BB23E
:1014C00018467B88DB089BB21A467B68083253F8C3
:1014D00022207B8803F007039B0019460F238B40D3
:1014E000DB4302EA03017B6800F1080243F82210A3
:1014F0007B88DB089BB21A467B68083253F82220AF
:10150000FB681343BB607B88DB089BB21A467B6891
:101510000832B96843F822101437BD465DF8047BE1
:10152000704700BF80B500AF114A114B1B6843F0F4
:10153000010313600E4B00229A600D4A0C4B1B688E
:1015400023F0847323F480331360094B094A5A60F3
:10155000074A074B1B6823F480231360044B0022C7
:10156000DA6000F00BF8044B4FF000629A6080BD27
:10157000003802401030002400ED00E080B483B059
:1015800000AF00237B6000233B60354A344B1B686F
:1015900043F480331360324B1B6803F400333B6029
:1015A0007B6801337B603B68002B03D17B68B3F51C
:1015B000A06FF0D12A4B1B6803F40033002B02D03C
:1015C00001233B6001E000233B603B68012B42D1DB
:1015D000234A234B1B6C43F080531364214A214B55
:1015E0001B6843F4804313601D4A1D4B9B68936046
:1015F0001B4A1B4B9B6843F400439360184A184BEB
:101600009B6843F4A0539360154B174A5A60144AE1
:10161000134B1B6843F08073136000BF104B1B68B3
:1016200003F00073002BF9D0104B40F205621A60F2
:101630000B4A0B4B9B6823F003039360084A084B4B
:101640009B6843F00203936000BF054B9B6803F067
:101650000C03082BF9D10C37BD465DF8047B7047AD
:10166000003802400070004010544007003C024027
:1016700080B485B000AF786039600023FB817B685F
:101680001B88FB81FB8903F44153FB813B681A886B
:101690003B685B8813439AB23B689B8813439AB2BA
:1016A0003B68DB8813439AB23B681B8913439AB2A9
:1016B0003B685B8913439AB23B689B8913439AB298
:1016C0003B68DB8913439AB2FB891343FB817B6838
:1016D000FA891A807B689B8B9BB223F400639AB2D1
:1016E0007B689A833B681A8A7B681A821437BD46E6
:1016F0005DF8047B704700BF80B483B000AF7860B2
:101700000B46FB70FB78002B08D07B681B889BB2D4
:1017100043F040039AB27B681A8007E07B681B881D
:101720009BB223F040039AB27B681A800C37BD4607
:101730005DF8047B704700BF80B483B000AF786071
:101740007B689B899BB218460C37BD465DF8047BCD
:10175000704700BF80B483B000AF78600B467B80D9
:101760007B687A889A810C37BD465DF8047B7047A8
:1017700080B485B000AF78600B467B800023FB739C
:101780007B681B899AB27B8813409BB2002B02D0E6
:101790000123FB7301E00023FB73FB7B1846143726
:1017A000BD465DF8047B704770B4840746D0541E74
:1017B000002A41D0CDB2034602E0621EE4B31446D3
:1017C00003F8015B9A07F8D1032C2ED9CDB245EA74
:1017D00005250F2C45EA054519D903F110022646C7
:1017E000103E0F2E42F8105C42F80C5C42F8085C88
:1017F00042F8045C02F11002F2D8A4F1100222F0C7
:101800000F0204F00F041032032C13440DD91E46AE
:101810002246043A032A46F8045BFAD8221F22F033
:1018200003020432134404F003042CB1C9B21C4473
:1018300003F8011BA342FBD170BC7047144603465A
:10184000C2E700BF008040C020A060E0109050D0F0
:1018500030B070F0088848C828A868E8189858D8A8
:1018600038B878F8048444C424A464E4149454D4A8
:1018700034B474F40C8C4CCC2CAC6CEC1C9C5CDC48
:101880003CBC7CFC028242C222A262E2129252D290
:1018900032B272F20A8A4ACA2AAA6AEA1A9A5ADA48
:1018A0003ABA7AFA068646C626A666E6169656D648
:1018B00036B676F60E8E4ECE2EAE6EEE1E9E5EDEE8
:1018C0003EBE7EFE018141C121A161E1119151D154
:1018D00031B171F1098949C929A969E9199959D918
:1018E00039B979F9058545C525A565E5159555D518
:1018F00035B575F50D8D4DCD2DAD6DED1D9D5DDDB8
:101900003DBD7DFD038343C323A363E3139353D3FF
:1019100033B373F30B8B4BCB2BAB6BEB1B9B5BDBB7
:101920003BBB7BFB078747C727A767E7179757D7B7
:1019300037B777F70F8F4FCF2FAF6FEF1F9F5FDF57
:101940003FBF7FFF70027240700F7300700B720216
:101950007001720000007FFFFE000000700872023C
:10196000700972C270047203700B7200700372010E
:101970007003720070027206700272077004728047
:04198000700A0000E9
:10198400007A030A000000000000000001020304C2
:041994000607080931
:0400000508000000EF
:00000001FF
