:020000040800F2
:10000000180800209D030008F9030008F903000800
:10001000F9030008F9030008F903000800000000D4
:10002000000000000000000000000000F9030008CC
:10003000F903000800000000F90300082904000883
:10004000F9030008F9030008F9030008F9030008A0
:10005000F9030008F9030008F9030008F903000890
:10006000F9030008F9030008F9030008F903000880
:10007000F9030008F9030008F9030008F903000870
:10008000F9030008F9030008F9030008F903000860
:10009000F9030008F9030008F9030008F903000850
:1000A000F9030008F9030008F9030008F903000840
:1000B000F9030008F9030008F9030008F903000830
:1000C000F9030008F9030008F9030008F903000820
:1000D000F9030008F9030008F9030008F903000810
:1000E000F9030008F9030008F9030008F903000800
:1000F000F9030008F9030008F9030008F9030008F0
:10010000F9030008F9030008F9030008F9030008DF
:10011000F9030008F9030008F9030008F9030008CF
:10012000F9030008F9030008F9030008F9030008BF
:10013000F9030008F9030008F9030008F9030008AF
:10014000F9030008F9030008F9030008F90300089F
:10015000F9030008F9030008F9030008F90300088F
:10016000F9030008F9030008F9030008F90300087F
:10017000F9030008F9030008F9030008F90300086F
:10018000F9030008F903000880B483B000AF034608
:100190003960FB7197F90730002B0BDA0D49FB79B9
:1001A00003F00F03043B3A68D2B21201D2B20B44FF
:1001B0001A7609E0084997F907303A68D2B2120175
:1001C000D2B20B4483F800230C37BD465DF8047BA4
:1001D000704700BF00ED00E000E100E080B582B0B4
:1001E00000AF78607B68B3F1807F01D3012311E019
:1001F0000A4B7A6822F07F42013A5A604FF0FF3092
:100200000F21FFF7C1FF054B00229A60034B072225
:100210001A60002318460837BD4680BD10E000E094
:1002200080B500AF00BF064B1A68064BA3FB021354
:100230009B0C1846FFF7D2FF0346002BF3D180BD7D
:100240000000002083DE1B4380B400AF094B094A45
:10025000526982F400625A61074B1B68002B04D07C
:10026000054B1B685A1E044B1A60BD465DF8047BA3
:10027000704700BF000802401400002080B400AFA7
:10028000064B4FF47A721A6000BF044B1B68002BB8
:10029000FBD1BD465DF8047B704700BF1400002011
:1002A00080B582B000AF0420012100F0C3F84FF404
:1002B00060533B600023BB7101233B710023FB7142
:1002C00002237B713B460348194600F0EFF80837DC
:1002D000BD4680BD0008024080B588B000AF012057
:1002E000012100F0A7F8E023BB610023BB770223C4
:1002F0003B770023FB7702237B7707F11803254820
:10030000194600F0D3F823480521052200F082F9B0
:1003100020480621052200F07DF91E48072105220C
:1003200000F078F91023BB610023BB7701233B77F2
:100330000023FB7702237B7707F118031548194642
:1003400000F0B4F81348102100F03EF94FF480504B
:10035000012100F08DF818233B820023BB8100238C
:100360007B8100233B810023BB8000237B824FF4F1
:100370008273FB804FF48073FB813B1D0648194656
:1003800000F08EF90448012100F0CEF92037BD4677
:1003900080BD00BF000002400030014080B582B047
:1003A00000AF104B7B60104B3B6007E03B681A1DB1
:1003B0003A607A68111D796012681A603A680B4BCE
:1003C0009A42F3D30A480B494FF000028842B8BF63
:1003D00040F8042BFFF6FAAF00F012F80837BD46DC
:1003E00080BD00BF68070008000000201400002046
:1003F000140000201800002080B400AFFEE700BF0A
:1004000080B500AFFFF74CFFFFF766FFFFF708FF6F
:1004100004484FF40061002200F0E4F8FFF72EFFDB
:10042000FCE700BF0008024080B500AFFFF70CFFFB
:1004300080BD00BF80B483B000AF78600B46FB7016
:10044000FB78002B06D0094B084A116B7A680A43E7
:100450001A6306E0054B054A116B7A68D2430A40DD
:100460001A630C37BD465DF8047B704700380240C4
:1004700080B483B000AF78600B46FB70FB78002B34
:1004800006D0094B084A516C7A680A435A6406E060
:10049000054B054A516C7A68D2430A405A640C37BE
:1004A000BD465DF8047B70470038024080B487B0D9
:1004B00000AF7860396000237B6100233B6100233B
:1004C000FB6000237B6176E07B69012202FA03F383
:1004D0003B613B681A683B691340FB60FA683B6903
:1004E0009A4265D17B681A687B695B00032101FA37
:1004F00003F3DB431A407B681A607B681A683B6829
:100500001B7919467B695B0001FA03F31A437B6888
:100510001A603B681B79012B03D03B681B79022BC7
:100520002ED17B689A687B695B00032101FA03F393
:10053000DB431A407B689A607B689A683B685B790A
:1005400019467B695B0001FA03F31A437B689A60E2
:100550007B685A687B699BB2012101FA03F3DB4394
:100560001A407B685A607B685A683B689B791946D9
:100570007B699BB201FA03F39BB21A437B685A6012
:100580007B68DA687B699BB25B00032101FA03F3A5
:10059000DB431A407B68DA607B68DA683B68DB79AA
:1005A00019467B695B0001FA03F31A437B68DA6042
:1005B0007B6901337B617B690F2B85D91C37BD4675
:1005C0005DF8047B704700BF80B483B000AF7860F3
:1005D0000B467B807B687A881A830C37BD465DF8B2
:1005E000047B704780B483B000AF786013460A463E
:1005F0007A807B707B78002B03D07B687A881A83A3
:1006000002E07B687A885A830C37BD465DF8047B2C
:10061000704700BF80B485B000AF786013460A46CB
:100620007A807B700023FB600023BB607A787B8834
:1006300003F007039B0002FA03F3FB607B88DB08EF
:100640009BB21A467B88DB089BB219467B6808314F
:1006500053F821107B8803F007039B000F2000FA5A
:1006600003F3DB4319407B68083243F822107B8890
:10067000DB089BB21A467B68083253F82220FB68DD
:100680001343BB607B88DB089BB21A467B68083249
:10069000B96843F822101437BD465DF8047B7047F3
:1006A00080B485B000AF786039600023FB817B683F
:1006B0001B88FB81FB8903F44153FB813B681A884B
:1006C0003B685B8813439AB23B689B8813439AB29A
:1006D0003B68DB8813439AB23B681B8913439AB289
:1006E0003B685B8913439AB23B689B8913439AB278
:1006F0003B68DB8913439AB2FB891343FB817B6818
:10070000FA891A807B689B8B9BB223F400639AB2B0
:100710007B689A833B681A8A7B681A821437BD46C5
:100720005DF8047B704700BF80B483B000AF786091
:100730000B46FB70FB78002B08D07B681B889BB2B4
:1007400043F040039AB27B681A8007E07B681B88FD
:100750009BB223F040039AB27B681A800C37BD46E7
:080760005DF8047B704700BF47
:10076800007A030A000000000000000001020304F0
:04077800060708095F
:0400000508000000EF
:00000001FF
