:020000040800F2
:1000000098180020AD1000080D1100080D1100080F
:100010000D1100080D1100080D110008000000006E
:100020000000000000000000000000000D110008AA
:100030000D110008000000000D11000881110008DA
:100040000D1100080D1100080D1100080D11000818
:100050000D1100080D1100080D1100080D11000808
:100060000D1100080D1100080D1100080D110008F8
:100070000D1100080D1100080D1100080D110008E8
:100080000D1100080D1100080D1100080D110008D8
:100090000D1100080D1100080D1100080D110008C8
:1000A0000D1100080D1100080D1100080D110008B8
:1000B0000D1100080D1100080D1100080D110008A8
:1000C0000D1100080D1100080D1100080D11000898
:1000D0000D1100080D1100080D1100080D11000888
:1000E0000D1100080D1100080D1100080D11000878
:1000F0000D1100080D1100080D1100080D11000868
:100100000D1100080D1100080D1100080D11000857
:100110000D1100080D1100080D1100080D11000847
:100120000D1100080D1100080D1100080D11000837
:100130000D1100080D1100080D1100080D11000827
:100140000D1100080D1100080D1100080D11000817
:100150000D1100080D1100080D1100080D11000807
:100160000D1100080D1100080D1100080D110008F7
:100170000D1100080D1100080D1100080D110008E7
:100180000D1100080D11000880B500AF00F026F831
:1001900002E00A2000F0E8FD00F0C4FE0346002B58
:1001A000F7D100F0A3F800F0B7F800F0D3F800F0B2
:1001B000F1F800F00DF9D12000F02CF900F04EF923
:1001C00000F06AF900F086F900F0C0F900F0DCF9FF
:1001D0000A2000F0EFFD00F0F5F980BD80B582B097
:1001E00000AF0023FB71002000F056FE002000F05D
:1001F00043FE002000F062FE002000F071FE0020AF
:1002000000F080FE002000F0FBFE0346FB710020A2
:1002100000F0F6FE0346FB71052000F0CBFD012047
:1002200000F02AFE0A2000F0C5FD012000F06AFE61
:10023000012000F031FE012000F052FE0A2000F003
:10024000B9FD002000F028FE0A2000F0B3FD0120D7
:1002500000F022FE0A2000F0ADFD0837BD4680BD4B
:1002600080B582B000AF00237B6000F01BFB786894
:100270000021042200F030FB142000F09BFDC82078
:1002800000F0EEFC00F044F900F060F9032000F00B
:10029000C7F9012000F0C4F94FF4AF7000F08AFDF7
:1002A00000F042FA002000F0BBF9012000F0B2F8A3
:1002B0004B2000F07FFD002000F012FE002000F037
:1002C000DBFD142000F076FD002000F0E5FD0020AD
:1002D00000F018FE012000F0F1FDC82000F06AFDDA
:1002E000012000F0EBFD0837BD4680BD80B582B02F
:1002F00000AF71233B7100237B713B1D1846022127
:1003000000F0ACFE3B1D1846022100F0A7FE03469C
:1003100018460837BD4680BD80B582B000AF0023C7
:10032000FB800B4A3B46106818603B46184602218A
:1003300000F094FE0346FB803B4602331846022140
:1003400000F08CFE0346FB800837BD4680BD00BF31
:100350008418000880B582B000AF0023FB800C4AEF
:100360003B46106818603B461846022100F076FEB6
:100370000346FB803B4602331846022100F06EFE26
:100380000346DBB2DB09DBB218460837BD4680BD49
:100390008818000880B582B000AF0023FB800B4AAC
:1003A0003B46106818603B461846022100F056FE96
:1003B0000346FB803B4602331846042100F04EFE04
:1003C0000346FB800837BD4680BD00BF8C1800087F
:1003D00080B584B000AF0023FB810D4A3B46106816
:1003E000516803C31189927A19809A703B46184666
:1003F000022100F033FE0346FB813B4602331846E0
:100400000B2100F02BFE0346FB811037BD4680BD5B
:100410009018000880B584B000AF0346FB7100233C
:10042000FB8170233B7207237B727223BB72FB79C3
:10043000FB7207F108031846022100F00FFE034685
:10044000FB8107F1080302331846042100F006FE81
:100450000346FB811037BD4680BD00BF80B582B02A
:1004600000AF0023FB800B4A3B46106818603B46F8
:100470001846022100F0F2FD0346FB803B460233A2
:100480001846022100F0EAFD0346FB800837BD460E
:1004900080BD00BF9C18000880B582B000AF00236B
:1004A000FB800B4A3B46106818603B461846022109
:1004B00000F0D4FD0346FB803B4602331846022180
:1004C00000F0CCFD0346FB800837BD4680BD00BF71
:1004D000A018000880B582B000AF0023FB800B4A53
:1004E0003B46106818603B461846022100F0B6FDF6
:1004F0000346FB803B4602331846022100F0AEFD66
:100500000346FB800837BD4680BD00BFA418000825
:1005100080B582B000AF0023FB800B4A3B461068D9
:1005200018603B461846022100F098FD0346FB8008
:100530003B4602331846022100F090FD0346FB8043
:100540000837BD4680BD00BFA818000880B582B03E
:1005500000AF0023FB800B4A3B46106818603B4607
:100560001846022100F07AFD0346FB803B46023329
:100570001846022100F072FD0346FB800837BD4695
:1005800080BD00BFAC18000880B582B000AF00236A
:10059000FB800B4A3B46106818603B461846022118
:1005A00000F05CFD0346FB803B4602331846022107
:1005B00000F054FD0346FB800837BD4680BD00BFF8
:1005C000B018000880B582B000AF0023FB71002393
:1005D000BB800023FB711CE0012000F021F8C82043
:1005E00000F0E8FB032000F01BF8642000F0E2FBC1
:1005F0000F2000F015F8282000F0DCFB00F034F8A4
:100600000346002B02D000F053F805E0FB790133DC
:10061000FB71FB79032BDFD90837BD4680BD00BFD6
:1006200080B584B000AF0346FB710023FB817023CB
:100630003B7205237B727223BB72FB79FB7207F15D
:1006400008031846022100F009FD0346FB8107F16B
:10065000080302331846022100F000FD0346FB8127
:100660001037BD4680BD00BF80B582B000AF00230B
:10067000FB800E4A3B46106818603B461846022134
:1006800000F0ECFC0346FB803B4602331846022197
:1006900000F0E4FC034603F04003002B0CBF0023F2
:1006A0000123DBB218460837BD4680BD8818000814
:1006B00080B582B000AF0023FB800B4A3B46106838
:1006C00018603B461846022100F0C8FC0346FB8038
:1006D0003B4602331846022100F0C0FC0346FB8073
:1006E0000837BD4680BD00BFB418000880B582B091
:1006F00000AF0023FB800B4A3B46106818603B4666
:100700001846022100F0AAFC0346FB803B46023358
:100710001846022100F0A2FC0346FB800837BD46C4
:1007200080BD00BFB818000880B582B000AF0023BC
:10073000FB800B4A3B46106818603B461846022176
:1007400000F08CFC0346FB803B4602331846022136
:1007500000F084FC0346FB800837BD4680BD00BF27
:10076000BC18000880B582B000AF7860786800F0EF
:100770000DF8786800F02AF8786800F073F83220F5
:1007800000F06EFA0837BD4680BD00BF80B584B06A
:1007900000AF78600023FB810023FB810FE0FA8922
:1007A00013465B0113447A681A44FB89DBB2104696
:1007B0001946002200F090F8FB890133FB81FB8988
:1007C000AF2BECD91037BD4680BD00BF80B584B0DB
:1007D00000AF78600023FB8100237B7300233B7311
:1007E00000237B7337E000233B732EE00023FB8163
:1007F0000FE0FA8913465B0113447A681A44FB89B7
:10080000DBB210461946022200F066F8FB8901337C
:10081000FB81FB89AF2BECD90023FB810FE0FA8928
:1008200013465B0113447A681A44FB89DBB2104615
:100830001946012200F050F8FB890133FB81FB8946
:10084000AF2BECD93B7B01333B733B7B042BCDD9E6
:100850007B7B01337B737B7B042BC4D91037BD4674
:1008600080BD00BF80B584B000AF78600023FB81FD
:100870000023FB810FE0FA8913465B0113447A6879
:100880001A44FB89DBB210461946032200F024F813
:10089000FB890133FB81FB89AF2BECD91037BD46B7
:1008A00080BD00BF80B582B000AF0023FB71002384
:1008B0003B600023FB7108E0FB793868194604228D
:1008C00000F00AF8FB790133FB71FB79AF2BF3D908
:1008D0000837BD4680BD00BF80B5BEB000AF7860B0
:1008E00013460A46FA70BB70002387F8F73007F109
:1008F000C80300221A60043300221A600433002265
:100900001A60043300221A60043300221A60043390
:1009100000221A60043300221A60043300221A6095
:10092000043300221A60043300221A6004330022C8
:100930001A600433BB78052B11D0FB789B08DBB21F
:10094000C3F12B03FA7802F003025200032101FAEB
:1009500002F2D2B207F1F8010B4403F8302C07F190
:10096000A40300221A60043300221A600433002218
:100970001A60043300221A60043300221A60043320
:1009800000221A60043300221A60043300221A6025
:10099000043300221A70013307F1800300221A6029
:1009A000043300221A60043300221A600433002248
:1009B0001A60043300221A60043300221A600433E0
:1009C00000221A60043300221A60043300221A70D5
:1009D0000133BB78042B00F0C080BB78052B00F0FE
:1009E000BC80002387F8F730B2E097F8F730C3F106
:1009F000200387F8F63097F8F63097F8F7207968F3
:100A00000A44127822F05502D2B207F1F8010B44E1
:100A100003F8542C97F8F63097F8F62007F1F80110
:100A20000A4412F8542C8C498A5C07F1F8010B44F3
:100A300003F8542C97F8F63097F8F62007F1F801F0
:100A40000A4412F8542C62F05502D2B207F1F801B0
:100A50000B4403F8542C97F8F73097F8F72079688F
:100A60000A44127802F05502D2B207F1F8010B44A1
:100A700003F8782C97F8F73097F8F72007F1F8018A
:100A80000A4412F8782C62F05502D2B207F1F8014C
:100A90000B4403F8782CBB78052B54D801A252F8EC
:100AA00023F000BFBD0A0008250B0008030B000857
:100AB000470B0008470B0008470B000897F8F63073
:100AC00097F8F62007F1F8010A4412F8542C82F046
:100AD0005502D2B207F1F8010B4403F8542C97F8F1
:100AE000F73097F8F72007F1F8010A4412F8782C4C
:100AF00082F05502D2B207F1F8010B4403F8782CCA
:100B000021E097F8F63007F1F8021344FF2203F8CA
:100B1000542C97F8F73007F1F8010B44FF2203F843
:100B2000782C10E097F8F63007F1F8021344AA2267
:100B300003F8542C97F8F73007F1F8010B44AA2278
:100B400003F8782C00BF97F8F730013387F8F730B7
:100B500097F8F730202B7FF648AF07F1100270238B
:100B6000104600211A4600F0C3FD72233B74002397
:100B70007B74002387F8F73013E097F8F7300233DF
:100B800097F8F72007F1F8010A4412F8542C07F1FE
:100B9000F8010B4403F8E82C97F8F730013387F895
:100BA000F73097F8F730202BE7D9002387F8F73094
:100BB00013E097F8F730233397F8F72007F1F8019F
:100BC0000A4412F8302C07F1F8010B4403F8E82C22
:100BD00097F8F730013387F8F73097F8F7302B2B79
:100BE000E7D9002387F8F73013E097F8F7304F3351
:100BF00097F8F72007F1F8010A4412F8782C07F16A
:100C0000F8010B4403F8E82C97F8F730013387F824
:100C1000F73097F8F730202BE7D9104A07F10C038B
:100C200012881A80002387F8F53007F10C03184664
:100C3000022100F013FA034687F8F53007F110039C
:100C40001846702100F00AFA034687F8F530FFF7DE
:100C50004DFDF837BD4680BD84170008C018000858
:100C600080B582B000AF0346FB71002000F038F978
:100C7000FB79184600F09EF8012000F031F90837A2
:100C8000BD4680BD80B483B000AF03463960FB71C0
:100C900097F90730002B0BDA0D49FB7903F00F03AE
:100CA000043B3A68D2B21201D2B20B441A7609E080
:100CB000084997F907303A68D2B21201D2B20B4410
:100CC00083F800230C37BD465DF8047B704700BFF6
:100CD00000ED00E000E100E080B582B000AF786098
:100CE0007B68B3F1807F01D3012311E00A4B7A685E
:100CF00022F07F42013A5A604FF0FF300F21FFF798
:100D0000C1FF054B00229A60034B07221A600023A3
:100D100018460837BD4680BD10E000E080B500AF42
:100D200000BF064B1A68064BA3FB02139B0C184628
:100D3000FFF7D2FF0346002BF3D180BD0000002057
:100D400083DE1B4380B400AF064B1B68002B04D02E
:100D5000044B1B685A1E034B1A60BD465DF8047BAA
:100D6000704700BF1400002080B483B000AF7860EB
:100D7000064B7A681A6000BF044B1B68002BFBD13E
:100D80000C37BD465DF8047B704700BF140000209F
:100D900080B400AF064B4FF47A721A6000BF044B68
:100DA0001B68002BFBD1BD465DF8047B704700BF7C
:100DB0001400002080B582B000AF786001E0FFF73A
:100DC000E7FF7B685A1E7A60002BF8D10837BD46D2
:100DD00080BD00BF80B582B000AF0420012100F0CB
:100DE000D5F94FF460533B600023BB7101233B7185
:100DF0000023FB7102237B713B460348194600F038
:100E000001FA0837BD4680BD0008024080B584B0B5
:100E100000AF0346FB71FB790C33012202FA03F3A6
:100E2000FB81FB890348194600F0C8FA1037BD461C
:100E300080BD00BF0008024080B584B000AF02460C
:100E40000B46FA71BB71FB790C33012202FA03F3F2
:100E5000FB81BB79012B05D1FB890648194600F0BF
:100E600079FA04E0FB890348194600F081FA10374B
:100E7000BD4680BD0008024080B582B000AF034689
:100E8000FB71FB79034802211A4600F07FFA08370C
:100E9000BD4680BD0004024080B582B000AF03466D
:100EA000FB71FB7904484FF400611A4600F06EFABA
:100EB0000837BD4680BD00BF0008024080B582B043
:100EC00000AF0346FB71FB7904484FF480611A467A
:100ED00000F05CFA0837BD4680BD00BF0008024044
:100EE00080B582B000AF0346FB71FB7904484FF434
:100EF00080411A4600F04AFA0837BD4680BD00BF5F
:100F00000004024080B582B000AF0346FB71FB795C
:100F1000034810211A4600F039FA0837BD4680BD53
:100F20000000024080B500AF03484FF4005100F0CC
:100F3000F7F90346184680BD0004024080B588B02A
:100F400000AF0120012100F021F9E023BB61002363
:100F5000BB7702233B770023FB7702237B7707F1E4
:100F600018032548194600F04DF9234805210522AC
:100F700000F036FA20480621052200F031FA1E481A
:100F80000721052200F02CFA1023BB610023BB7758
:100F900001233B770123FB7702237B7707F11803BB
:100FA0001548194600F02EF91348102100F0D2F927
:100FB0004FF48050012100F007F918233B820023F1
:100FC000BB8100237B8100233B810023BB80002366
:100FD0007B824FF48273FB804FF44073FB813B1D97
:100FE0000648194600F0E8FA0448012100F028FB01
:100FF0002037BD4680BD00BF0000024000300140E8
:1010000080B582B000AF0346FB71FB799BB21248FA
:10101000194600F043FB00BF0F48022100F04CFBD3
:101020000346002BF8D000BF0B48012100F044FB21
:101030000346002BF8D000BF0748802100F03CFB9E
:101040000346002BF8D1044800F01AFB0346DBB23C
:1010500018460837BD4680BD0030014080B584B0D9
:1010600000AF78600B467B800023FB730023BB81BD
:101070000020FFF747FF0023BB810BE07B685A1C71
:101080007A601B781846FFF7BBFF0346FB73BB89EA
:101090000133BB81BA897B889A42EFD30120FFF7E5
:1010A00031FFFB7B18461037BD4680BD80B582B04E
:1010B00000AF114B7B60114B3B6007E03B681A1D92
:1010C0003A607A68111D796012681A603A680C4BB0
:1010D0009A42F3D30B480C494FF000028842B8BF44
:1010E00040F8042BFFF6FAAF00F0C0F900F012F858
:1010F0000837BD4680BD00BFC418000800000020AE
:1011000014000020140000209810002080B400AFCC
:10111000FEE700BF80B582B000AFFFF7FFFDFFF72D
:1011200059FE00200121FFF787FEFFF707FFFFF7B9
:101130002BF800200021FFF77FFE01200121FFF79F
:101140007BFE0023FB710023FB7105E00B48FFF7DA
:1011500009FBFB790133FB71FB79132BF6D9FFF700
:101160007FF801200021FFF767FE0020FFF74EFE09
:101170004FF4FA70FFF71EFEF7E700BF18000020DB
:1011800080B500AFFFF7DEFD80BD00BF80B483B047
:1011900000AF78600B46FB70FB78002B06D0094B44
:1011A000084A116B7A680A431A6306E0054B054A40
:1011B000116B7A68D2430A401A630C37BD465DF85A
:1011C000047B70470038024080B483B000AF786081
:1011D0000B46FB70FB78002B06D0094B084A516C7C
:1011E0007A680A435A6406E0054B054A516C7A68EE
:1011F000D2430A405A640C37BD465DF8047B704701
:101200000038024080B487B000AF786039600023B6
:101210007B6100233B610023FB6000237B6176E060
:101220007B69012202FA03F33B613B681A683B6960
:101230001340FB60FA683B699A4265D17B681A6883
:101240007B695B00032101FA03F3DB431A407B68EF
:101250001A607B681A683B681B7919467B695B00DA
:1012600001FA03F31A437B681A603B681B79012B70
:1012700003D03B681B79022B2ED17B689A687B696F
:101280005B00032101FA03F3DB431A407B689A6099
:101290007B689A683B685B7919467B695B0001FA59
:1012A00003F31A437B689A607B685A687B699BB238
:1012B000012101FA03F3DB431A407B685A607B6823
:1012C0005A683B689B7919467B699BB201FA03F324
:1012D0009BB21A437B685A607B68DA687B699BB271
:1012E0005B00032101FA03F3DB431A407B68DA60F9
:1012F0007B68DA683B68DB7919467B695B0001FA39
:1013000003F31A437B68DA607B6901337B617B6995
:101310000F2B85D91C37BD465DF8047B704700BF95
:1013200080B485B000AF78600B467B800023FB73F0
:101330007B681A697B881340002B02D00123FB7362
:1013400001E00023FB73FB7B18461437BD465DF8B4
:10135000047B704780B483B000AF78600B467B801D
:101360007B687A881A830C37BD465DF8047B70472A
:1013700080B483B000AF78600B467B807B687A884E
:101380005A830C37BD465DF8047B704780B483B048
:1013900000AF786013460A467A807B707B78002B1A
:1013A00003D07B687A881A8302E07B687A885A8344
:1013B0000C37BD465DF8047B704700BF80B483B036
:1013C00000AF78600B467B807B685A697B885A4007
:1013D0007B685A610C37BD465DF8047B704700BFDF
:1013E00080B485B000AF786013460A467A807B707F
:1013F0000023FB600023BB607A787B8803F007033F
:101400009B0002FA03F3FB607B88DB089BB21A4661
:101410007B88DB089BB219467B68083153F82110A2
:101420007B8803F007039B000F2000FA03F3DB43E4
:1014300019407B68083243F822107B88DB089BB296
:101440001A467B68083253F82220FB681343BB60BE
:101450007B88DB089BB21A467B680832B96843F880
:1014600022101437BD465DF8047B704780B500AF8D
:10147000114B114A126842F001021A600E4B002211
:101480009A600D4A0C4B1B6823F0847323F480335D
:101490001360094B094A5A60074B074A126822F445
:1014A00080221A60044B0022DA6000F00BF8044B33
:1014B0004FF000629A6080BD003802401030002476
:1014C00000ED00E080B483B000AF00237B60002318
:1014D0003B60354B344A126842F480321A60324B1A
:1014E0001B6803F400333B607B6801337B603B681F
:1014F000002B03D17B68B3F5A06FF0D12A4B1B689A
:1015000003F40033002B02D001233B6001E00023F1
:101510003B603B68012B42D1234B234A126C42F0C3
:1015200080521A64214B214A126842F480421A60A8
:101530001D4B1D4A92689A601B4B1B4A926842F4ED
:1015400000429A60184B184A926842F4A0529A607E
:10155000154B174A5A60144B134A126842F08072B6
:101560001A6000BF104B1B6803F00073002BF9D00A
:10157000104B40F205621A600B4B0B4A926822F046
:1015800003029A60084B084A926842F002029A608D
:1015900000BF054B9B6803F00C03082BF9D10C37F7
:1015A000BD465DF8047B7047003802400070004083
:1015B00010544007003C024080B485B000AF786012
:1015C00039600023FB817B681B88FB81FB8903F466
:1015D0004153FB813B681A883B685B8813439AB28E
:1015E0003B689B8813439AB23B68DB8813439AB2EB
:1015F0003B681B8913439AB23B685B8913439AB2D9
:101600003B689B8913439AB23B68DB8913439AB2C8
:10161000FB891343FB817B68FA891A807B689B8B6B
:101620009BB223F400639AB27B689A833B681A8A60
:101630007B681A821437BD465DF8047B704700BF93
:1016400080B483B000AF78600B46FB70FB78002B52
:1016500008D07B681B889BB243F040039AB27B683A
:101660001A8007E07B681B889BB223F040039AB284
:101670007B681A800C37BD465DF8047B704700BF5D
:1016800080B483B000AF78607B689B899BB21846BA
:101690000C37BD465DF8047B704700BF80B483B053
:1016A00000AF78600B467B807B687A889A810C3724
:1016B000BD465DF8047B704780B485B000AF7860AC
:1016C0000B467B800023FB737B681B899AB27B8867
:1016D00013409BB2002B02D00123FB7301E00023D7
:1016E000FB73FB7B18461437BD465DF8047B7047DF
:1016F000F0B4840743D0541E002A3ED0CDB2034636
:1017000003E0621E002C38D0144603F8015B9A07F0
:10171000F7D1032C2AD9CDB245EA05250F2C45EA8D
:10172000054515D9A4F110073F0903F1100606EB92
:1017300007161A46156055609560D5601032B242A2
:10174000F8D104F00F040137032C03EB07130DD974
:101750001E462246043A032A46F8045BFAD8221FA2
:1017600022F003020432134404F003042CB1C9B282
:101770001C4403F8011BA342FBD1F0BC7047144684
:101780000346C6E7008040C020A060E0109050D023
:1017900030B070F0088848C828A868E8189858D869
:1017A00038B878F8048444C424A464E4149454D469
:1017B00034B474F40C8C4CCC2CAC6CEC1C9C5CDC09
:1017C0003CBC7CFC028242C222A262E2129252D251
:1017D00032B272F20A8A4ACA2AAA6AEA1A9A5ADA09
:1017E0003ABA7AFA068646C626A666E6169656D609
:1017F00036B676F60E8E4ECE2EAE6EEE1E9E5EDEA9
:101800003EBE7EFE018141C121A161E1119151D114
:1018100031B171F1098949C929A969E9199959D9D8
:1018200039B979F9058545C525A565E5159555D5D8
:1018300035B575F50D8D4DCD2DAD6DED1D9D5DDD78
:101840003DBD7DFD038343C323A363E3139353D3C0
:1018500033B373F30B8B4BCB2BAB6BEB1B9B5BDB78
:101860003BBB7BFB078747C727A767E7179757D778
:1018700037B777F70F8F4FCF2FAF6FEF1F9F5FDF18
:101880003FBF7FFF70027240700F7300700B7202D7
:101890007001720000007FFFFE00000070087202FD
:1018A000700972C270047203700B720070037201CF
:1018B0007003720070027206700272077004728008
:0418C000700A0000AA
:1018C400007A030A00000000000000000102030483
:0418D40006070809F2
:0400000508000000EF
:00000001FF
